:020000040801F1
:10000000E8AE0020650101080D2D0108851B0108DF
:10001000092D0108FD030108413E01080000000010
:10002000000000000000000000000000393201085C
:10003000ED13010800000000E92D01084936010810
:100040007F0101087F0101087F0101087F0101088C
:100050007F0101087F0101087F0101087F0101087C
:100060007F0101087F0101087F0101087F0101086C
:100070007F0101087F0101087F010108611001086B
:10008000B11001087F0101087F0101087F0101080B
:100090007F0101087F0101087F0101087F0101083C
:1000A0007F0101087F0101087F0101087F0101082C
:1000B0007F0101087F0101087F0101087F0101081C
:1000C0007F0101087F0101087F0101087F0101080C
:1000D0007F01010891390108213B01087F010108D6
:1000E0007F0101087F0101087F0101087F010108EC
:1000F0007F0101087F0101087F0101087F010108DC
:100100007F0101087F0101087F0101087F010108CB
:100110007F0101087F0101087F0101087F010108BB
:100120007F0101087F0101087F0101087F010108AB
:10013000DFF80CD000F02AFB0048004779410108A5
:10014000E8AE0020EFF30980704780F3098870471C
:10015000EFF30880704780F30888704740BA704713
:10016000C0BA70470648804706480047FEE7FEE7EA
:10017000FEE7FEE7FEE7FEE7FEE7FEE7FEE7FEE757
:10018000513601083101010840EA01039B0703D001
:1001900009E008C9121F08C0042AFAD203E011F8C6
:1001A000013B00F8013B521EF9D27047D2B201E088
:1001B00000F8012B491EFBD270470022F6E710B56C
:1001C00013460A4604461946FFF7F0FF204610BDC5
:1001D0000146002000E0401C0A5C002AFBD1704769
:1001E00080EA010210B502F00043400026D04A0028
:1001F00023D04FEA106101EB1261C0F35600C2F345
:10020000560240F4000042F40002A0FB0220A1F1DB
:100210007F014FEA0040140401D000F1010050EAD0
:10022000124001D44000491EC2B20C0604EBD010AB
:10023000401C4008802A02D003E0002010BD20F0BE
:100240000100002900DA0020184310BD2DE9FE4FFF
:10025000804681EA0300C00F0C46009021F0004167
:1002600023F00045B8EB0200A94105D240462146E3
:1002700090461C460B46024623F00040104304D132
:100280004046214603B0BDE8F08F270DC7F30A00B2
:10029000C3F30A510290401A0190402866DAC3F372
:1002A000130040F4801B0098924620B10023D2EB4B
:1002B000030A63EB0B0B01985946C0F1400250460C
:1002C00000F0ADF906460D4650465946019A00F039
:1002D000B5F910EB08006141002487EA115284EA65
:1002E000E7731A433BD0009A3AB3019A012A4FEAC6
:1002F000075210DC001B61EB02014FF0004202EAE2
:100300000752CDE90042001C41F5801132462B46D0
:1003100000F0E9F9B6E7001B61EB0201001C41F5B2
:10032000801300185B412018A2F5001747EB03016A
:1003300040EAD570B6196D4111E06D084FEA3606F6
:1003400045EAC0754FEA0752001B61EB0201001C31
:1003500041F5801149084FEA3000001951413246F9
:100360002B4603B0BDE8F04F00F0B0B90098012271
:1003700040000023D0EB020263EBE07300982146BB
:100380004FEAE074B8EB000061EB0401E9E783F0A9
:1003900000435BE781F0004158E70EB540F233417E
:1003A00002910021CDE900110A460B4600F09BF9AD
:1003B00003B000BD00F0004220F00040C10DC0F3CA
:1003C000160040F400007F2901DA002070479629CA
:1003D00003DCC1F19601C84001E096398840002A4B
:1003E000F4D04042704721B1826842F0010282603D
:1003F00003E0826822F001028260704700BFFEE7DE
:1004000020312E302E31204275696C642040204A04
:10041000616E20203820323032302032323A343986
:100420003A3039002DE9FE4F81EA030404F000441C
:1004300021F0004100944FF0000B23F0004350EAFC
:10044000010402D052EA030404D10020014603B0A3
:10045000BDE8F08FC3F30A54C1F30A552C44A4F24B
:10046000F3340194A0FB0254C1F3130141F4801151
:10047000C3F3130343F4801301FB024400FB034E58
:10048000840A970A44EA815447EA8357A4FB076821
:1004900002958D0A05FB07854FEA932C04FB0C544B
:1004A0002705029D4FEA065847EA1637B5EB0805BF
:1004B0006EEB070C870E920E47EA811742EA831211
:1004C000A7FB0201B6EB0B0164EB00042B0D43EA22
:1004D0000C335E1844EB1C50DA465146E7FB020130
:1004E000C5F313044FEA0B3343EA14534FEA0432C3
:1004F000019C43EA0603A4F10C040294009CCDE99C
:1005000000B400F0F0F8A2E72DE9F04D81EA030411
:1005100004F0004B21F0004514464FF0000A23F090
:10052000004150EA050220D054EA01021DD0C5F373
:100530000A570246C5F31303C1F31300C1F30A5669
:1005400040F4801543F48013A7EB0608101BD64631
:1005500008F2FD3873EB050002D308F1010801E051
:1005600092185B41B8F1000F03DA00200146BDE8A4
:10057000F08D00204FF48011064684460EE0171BD4
:1005800073EB050705D3121B63EB050306434CEA27
:10059000010C49084FEA300092185B4150EA01070C
:1005A000EDD152EA030012D082EA040083EA050189
:1005B000084303D100224FF0004308E0101BAB4179
:1005C00002D20122002302E06FF0010253101AEB65
:1005D00006004CEB085110EB0A0041EB0B01BDE8A3
:1005E000F04D00F073B801F0004330B421F0004149
:1005F00050EA010206D00A0DA2F56072C1F31301A0
:10060000002A02DC30BC00207047440F44EAC104D9
:10061000C100E01830BC00EBC25000F021B8202A25
:1006200004DB203A00FA02F1002070479140C2F149
:10063000200320FA03F3194390407047202A06DB79
:10064000CB17203A41FA02F043EAE07306E041FAA0
:1006500002F3D040C2F1200291400843194670478E
:100660000029A8BF7047401C490008BF20F00100C6
:10067000704710B4B0FA80FC00FA0CF050EA0104A4
:1006800004BF10BC704749B1CCF1200421FA04F436
:1006900011FA0CF118BF012121430843A3EB0C010F
:1006A000CB1D0106000A002BBEBF002010BC704706
:1006B00000EBC35010440029A4BF10BC7047401C7D
:1006C000490008BF20F0010010BC704710B5002B96
:1006D00008DA401C41F1000192185B411A4301D134
:1006E00020F0010010BD2DE9F04D92469B4611B15E
:1006F000B1FA81F202E0B0FA80F220329046FFF7C0
:100700008EFF04460F4640EA0A0041EA0B015346B9
:100710005A46084303D120463946BDE8F08D1146BC
:1007200053EA010015D0C8F14002504600F040F8ED
:1007300005460E46504659464246FFF770FF0843AD
:1007400001D0012000E00020054346EAE0762C437A
:1007500037430A984FEA4453A0EB08004FEAD424E9
:100760000A304FF0000244EA47544FEAD72502D539
:1007700000200146D1E7010510196941DDE908456E
:1007800000196941BDE8F04DA0E70000064C074D97
:1007900006E0E06840F0010394E807009847103451
:1007A000AC42F6D3FFF7C8FC94470108B4470108F0
:1007B000202A04DB203A21FA02F00021704721FAB6
:1007C00002F3D040C2F1200291400843194670471D
:1007D00021B1826842F48072826003E0826822F470
:1007E000807282607047014600208A6812F0040F10
:1007F00001D0012000E000207047014600208A68F7
:1008000012F0080F01D0012000E000207047000026
:1008100030B502460020002350680F4C20400D796F
:100820000C6844EA05242043506090680B4C20403B
:10083000D1E902542C434D7944EA450420439060A9
:10084000D06A20F470000C7C641EE4B2234340EABA
:100850000350D06230BD0000FFFEF0FFFDF7F1FF56
:10086000F0B504460D4600200021092D11DDE06899
:10087000A5F10A0606EB4607072606FA07F18843A4
:10088000A5F10A0606EB460603FA06F10843E06006
:100890000CE0206905EB4507072606FA07F18843B7
:1008A00005EB450603FA06F108432061072A0FDA33
:1008B000606B561E06EB86071F2606FA07F1884373
:1008C000561E06EB860605FA06F10843606322E031
:1008D0000D2A0FDA206BD61F06EB86071F2606FAB5
:1008E00007F18843D61F06EB860605FA06F1084392
:1008F000206310E0E06AA2F10D0606EB86071F26D2
:1009000006FA07F18843A2F10D0606EB860605FA02
:1009100006F10843E062F0BD816841F008018160A2
:10092000704721B1826842F4A002826003E08268CD
:1009300022F4A00282607047816841F00401816066
:100940007047000010B54FF4D47003F07DFC0446EE
:100950004FF4D4712046FFF730FC224801F058FCD8
:10096000C4F89001D4F8900102F02AFF4FF4CA7144
:100970000851D4F8900100F0DFFD4FF4CC7108511C
:10098000D4F8900100F034FD4FF4CE71085100F01E
:1009900091FA4FF4D0710851134804F1A00444F8BF
:1009A000780C124844F8740C114844F8500C114863
:1009B000E06211482063114860631148A063114848
:1009C000E06311482064114860641148A064114834
:1009D000E06702F037FDC4F80401A4F1A00420464A
:1009E00010BD000000580040E90A0108190A01087A
:1009F000610A0108B90A0108250C01088D0A0108DD
:100A0000F90B01084D0B0108D90B0108510C010825
:100A1000790B0108A90B01081CB50C4601200190B7
:100A2000E0880B23002211460090104602F050FD92
:100A300000F0BAFE084800F021FE042201A9064891
:100A400000F032FE00F031FF04E000F009FE034840
:100A500000F05AFCF9E7000000E00708BC14002091
:100A6000F8B506460C4608480068FFF7B1FB401C85
:100A700085B2E088142300222946009002480068CD
:100A800002F026FD0020F8BD14000020F8B506464F
:100A90000C4604F110056A882888291D02F0A4FA82
:100AA000E08800906888001D81B235230022284626
:100AB00002F00EFD0020F8BDF8B506460C4604F124
:100AC00010056B88298804F11402A02002F058FA5E
:100AD000E08800906888001D81B2332300222846F8
:100AE00002F0F6FC0020F8BD7CB505460C4601205E
:100AF0000190E0880A23002211460090104602F07F
:100B0000E7FC00F051FE0D4800F0B8FD042201A9F9
:100B10000A4800F0C9FD00F0C8FE094801F0A4F839
:100B2000084803F03FF8084803F03CF8012080F340
:100B3000108800BF01F0CEFE00207CBD00E8070851
:100B4000005400400038014000440040F8B506461B
:100B50000C4604F110056A88298804F11403682002
:100B600002F0F6FAE088372300220421009028469C
:100B700002F0AEFC0020F8BDF8B505460C46D5F8ED
:100B8000A46104F1100742F208008359012239469A
:100B900030469847E0883A230022402100903846AA
:100BA00002F096FC0020F8BD7CB505460C46D5F851
:100BB000A461207C019042F2040082599DF8041047
:100BC00030469047E088472300220121009001A889
:100BD00002F07EFC00207CBDF8B506460C4600F015
:100BE00031FF0546E0883823002240210090284646
:100BF00002F06EFC0020F8BDF8B506460C4604F184
:100C000010056A88298804F11403682002F004FBA7
:100C1000E0883623002204210090284602F058FC88
:100C20000020F8BDF8B506460C4604F110056B88A7
:100C3000298804F11402A02003F07AF9E088342313
:100C4000002204210090284602F042FC0020F8BD5A
:100C5000F8B505460C46D5F8A46104F1100742F238
:100C6000080083590122394630469847E0883923E5
:100C7000002240210090384602F02AFC0020F8BDF6
:100C80002DE9F04F8DB081464FF4D07050F809A097
:100C90005046DAF8481088470546D9F8A461002480
:100CA00078480088854202D10DB0BDE8F08F7548C4
:100CB0000088854205DD73480088801CA84206DD57
:100CC000F2E7A81C6F490988884200DDECE76D480F
:100CD0000580402003F0B8FA044640F627308542EC
:100CE00027DB01270BA9384603F0A0F80420E070A9
:100CF0009DF82C0020719DF82D1061719DF82E102B
:100D0000A1719DF82F10E1710120A4F8010042F2B9
:100D10000800835901222146304698470320A4F851
:100D2000010042F2080083590122214630469847CB
:100D3000A1E04FF0000B00200A900BA90A9803F0E5
:100D400075F80420E0709DF82C0020719DF82D109E
:100D500061719DF82E10A1719DF82F10E171012095
:100D6000A4F8010042F208008359012221463046CE
:100D700098470320A4F8010042F208008359012299
:100D800021463046984740F24570854226DB28468A
:100D9000FFF703FB4FF066323B4BCDE90001FFF755
:100DA00041FB0022394BCDE90201FFF7ADFB0022E8
:100DB000374BCDE90401FFF735FB0022354BCDE978
:100DC0000601FFF7E7FA0022334BCDE90801FFF7F0
:100DD0009BFB0746FFF707FC834625E02846FFF705
:100DE000DCFA07464FF06632274BFFF71BFB002269
:100DF000264BCDE90001FFF787FB0022274BCDE909
:100E00000201FFF70FFB264A264BCDE90401FFF74D
:100E1000C1FA0022244BCDE90601FFF775FBCDE9AD
:100E20000801FFF7E0FB83460BA9584600F041FD9F
:100E30000420E0709DF82C0020719DF82D10617148
:100E40009DF82E10A1719DF82F10E1710520A4F8D6
:100E5000010042F20800835901222146304698479A
:100E60000620A4F8010042F208008359012221461D
:100E70003046984700BF14B1204603F055F900BF33
:100E800012E700000000002066660A400000B04043
:100E900000002C400080404000005440004055407D
:100EA0009A9999999951624000C05F400146B1F802
:100EB00044007047F8B54C2003F0C6F9064606F129
:100EC0001804351D01200023032202210090394817
:100ED00000F004FE30603848B0640121084601F09B
:100EE00091FF364800F026F93548206006F14400AD
:100EF00060600020A0600120E0600020206160614F
:100F00004FF48070A0618000E06120202062000228
:100F100060620020A0622146284800F0D4F9012137
:100F2000264800F0FBF80121480201F09BFF4FF436
:100F3000004001F05BFF00202860012028716871EB
:100F40004FF46020A8600020E86001202874294642
:100F50001B484C38FFF75CFC052301220B21184885
:100F60004C38FFF77DFC012115484C38FFF730FC69
:100F7000012113484C38FFF736FA11484C38FFF777
:100F8000CBFC00BF0E484C38FFF737FC0028F9D1E6
:100F90000B484C38FFF7D0FC00BF09484C38FFF72E
:100FA00022FC0028F9D1012105484C38FFF7B9FC93
:100FB0003046F8BD00100140AD0E010808000240A7
:100FC0004C24014010B504460020E060608800F128
:100FD0001001204600F004F8E060E06810BD000059
:100FE00030B503460C464FF0FF32002108E0585C54
:100FF0005040C0B2044D55F8200080EA1222491C2E
:10100000A142F4D3D04330BD6043010830B504465B
:10101000E5682046FFF7D6FFE068A84201D101202D
:1010200030BD0020FCE7F0B503460C46002042F23C
:101030000805E9580DE01D1D6D5C25544D1C1E680A
:1010400095FBF6F706FB1751451C2846954200D143
:1010500004E042F20405ED588D42ECD100BFF0BD32
:1010600010B54FF4803000F00FF9D0B100210D48D9
:1010700000F054F80B4800F003F9C0F50064224674
:1010800009490A4802F0BCFF4FF4803000F038F8FC
:101090004FF40061034800F034F90121014800F0E9
:1010A0003DF810BD58000240BC040020BC140020D4
:1010B00010B54FF4801000F0E7F8D0B100210D48D2
:1010C00000F02CF80B4800F0DBF8C0F50064224675
:1010D00009490A4802F094FF4FF4801000F010F81C
:1010E0004FF40061034800F00CF90121014800F0C1
:1010F00015F810BD6C000240BC0C0020C834002064
:1011000010F0805F02D00349086001E002494860A6
:1011100070470000040402400000024021B1026850
:1011200042F00102026004E002684FF6FE731A40CA
:101130000260704701684FF6FE72114001600021A5
:10114000016041608160C1604B49884208D14A49D1
:101150000839496841F00F01474A083A51608AE06E
:1011600045491431884208D143490839496841F05A
:10117000F001414A083A51607DE03F4928318842F8
:1011800008D13D490839496841F470613A4A083A42
:10119000516070E038493C31884208D136490839FD
:1011A000496841F47041344A083A516063E0324979
:1011B0005031884208D130490839496841F47021DA
:1011C0002D4A083A516056E02B496431884208D1D3
:1011D00029490839496841F47001274A083A5160A1
:1011E00049E025497831884208D1234908394968BE
:1011F00041F07061204A083A51603CE01F49884242
:1012000006D1011F096841F00F01021F116032E091
:101210001A491431884208D11849091F096841F058
:10122000F001164A121F116025E014492831884246
:1012300008D11249091F096841F470610F4A121F51
:10124000116018E00D493C31884208D10B49091F53
:10125000096841F47041094A121F11600BE0074907
:101260005031884207D10549091F096841F47021AE
:10127000024A121F11607047080002400804024031
:101280000146486880B2704701460020002211F0F4
:10129000805F02D0054B1A6801E0054B1A680A42CC
:1012A00001D0012000E0002070470000000402404F
:1012B000000002401AB103680B43036002E00368B8
:1012C0008B430360704710B50022026847F6F07345
:1012D0009A430C6A8B6823430C6923434C6923436C
:1012E0008C692343CC6923434C6A23438C6A234390
:1012F0001A430260CB6843600B6883604B68C3602D
:1013000010BD4160704700001CB5064602F0F2F9BE
:1013100007460525304801905DE002F0EBF92F49C2
:101320000968401A642809D302F0E4F92B490860DF
:101330002B480068C1682A4800688847052D08D1F5
:1013400002F0D8F9C01B40F6B831884201D902F04A
:1013500061F94FF482612348FEF72FFF214930469F
:1013600000F08FFB00B936E0052D33D102F0C2F951
:1013700007461C488088512802D0522829D113E002
:1013800018484488E01C84B22046E11704EB9171B0
:101390008C1022461349103101A800F009FA1149B6
:1013A000C88802F0B5F814E00020009000F0FCF9C5
:1013B0000D4800F063F9042269460B4800F074F907
:1013C00000F073FA0749C88802F0A2F802F022F987
:1013D00000BF00BF00BFA0E70000040878000020A5
:1013E00054000020D454002000E00708704700009B
:1013F00070B50546142002F027FF044625606820DA
:1014000020710448A0600448E06004482061204640
:1014100070BD0000211401081515010847140108CA
:101420002DE9F84304460D4616461F46D4F80080C1
:10143000EAB20097217933464046D8F80CC0E0471D
:10144000C0B2BDE8F8832DE9F04786B0054689466D
:1014500092461F4600200590804600242E680220F8
:101460000090297905AB1C223046D6F80CC0E04725
:101470009DF815009DF8141000EB01201FFA80F86C
:1014800018F0200F02D0322002F068F9002425E085
:1014900000208DF808000AEB84000068CDF80900F0
:1014A0000520009004F50160C2B2297902AB3046F4
:1014B000D6F810C0E04709EB040188B202A902F097
:1014C000F9FE0220009004F61500C2B2297902ABA1
:1014D0003046D6F810C0E047601C84B2F91707EB1D
:1014E0009171B4EBA10FD3DB48F020084FEA28201C
:1014F0008DF8140008F0FF008DF815000220009010
:10150000297905AB1C223046D6F810C0E04706B05A
:10151000BDE8F0872DE9F84304460D4616461F4600
:10152000D4F80080EAB20097217933464046D8F8D3
:1015300010C0E047BDE8F88370B50546102002F002
:1015400083FE04462560A02020710348A060034864
:10155000E060204670BD0000611501088715010894
:101560002DE9F84304460D4616461F46D4F8008080
:10157000EAB20097217933464046D8F80CC0E047DC
:10158000C0B2BDE8F8832DE9FC5F06460C469046E4
:101590009B460025CDF804805F46D6F80090E11701
:1015A00004EB91618911B4EB811130D0A246E017B0
:1015B00004EB90608011A4EB8010C0F1400080B279
:1015C000E2B20090317943464846D9F810C0E0476E
:1015D0002046E11704EB91618911A4EB811204F11B
:1015E0004001891A8CB22046E11704EB9161891100
:1015F000A4EB8111C1F1400141440191E11704EBD9
:1016000091618911A4EB8111C1F140017F1A22E09F
:10161000402F0DDD40200090019800EB851304EB76
:101620008510C2B231794846D9F810C0E0470CE0C5
:10163000B8B20090019800EB851304EB8510C2B29C
:1016400031794846D9F810C0E047403F681C85B260
:10165000142002F083F8002FDADC0020BDE8FC9FA4
:1016600010B500F0A1F84FF400620249024800F002
:1016700085F810BD003804080000040810B50446C1
:101680000748844209D30748844206D8204600F020
:1016900035F8042801D1002010BD4FF0FF30FBE7E2
:1016A00000C0070800F807082DE9F04104460F467E
:1016B000904600260E48844217D30E48844214D820
:1016C000254600BF0FE00C4885420AD857F826107F
:1016D000284600F099F8042801D12D1D02E0BDE84C
:1016E000F081FCE7761C4645EDD300BFF7E700002C
:1016F00000C0070800F80708FBFF070830B50446DC
:1017000004254FF4302000F0BDF80546042D17D114
:101710000C48006940F002000A490861084644612B
:10172000006940F0400008614FF4302000F0AAF852
:1017300005460448006941F6FD7108400149086109
:10174000284630BD0020024004200B49C96811F032
:10175000010F01D001200EE00749C96811F0040F04
:1017600001D0022007E00449C96811F0100F01D030
:10177000032000E004207047002002402DE9F041E2
:1017800005460E4617462C460AE02046FFF7B6FFF0
:10179000042801D13C4403E04FF0FF30BDE8F08164
:1017A000B442F2D90020F9E710B500F05FF810BD9F
:1017B0002DE9F04104460E461746002500BF12E011
:1017C00020680B4988420CD856F82510206800F094
:1017D0001BF8042803D12068001D206002E0BDE84A
:1017E000F081FCE76D1CBD42EAD300BFF7E70000C3
:1017F000FB3F04080348006940F08000014908618C
:101800007047000000200240F0B504460D46042653
:101810000027F00200F036F80646042E22D11248C6
:10182000006940F00100104908612580F00200F0D5
:1018300029F80646042E0ED1A71C280C3880F00289
:1018400000F020F806460848006941F6FE7108409D
:101850000549086106E00448006941F6FE71084048
:10186000014908613046F0BD0020024002480349AA
:1018700048600348486070472301674500200240E4
:10188000AB89EFCD00B502460423FFF75DFF0346A9
:1018900003E0FFF759FF0346521E012B01D1002A36
:1018A000F7D102B90523184600BD10B5FFF7A2FF16
:1018B00010BD2DE9F04106460C464FF096413046EA
:1018C000FEF78EFC8046FEF775FD074607F10065C2
:1018D000E570280AA070280C6070280E207020780F
:1018E00080F008002070207800F00800002803DD58
:1018F000207840F0F0002070BDE8F0812DE9F04143
:10190000024600250026002000230024002791F82D
:1019100003C00CF00F0591F803C01CF0100F03D0AA
:1019200091F802C04CEA050591F800C0BCF1000F27
:1019300031D0146800202BE04FF0010C0CFA00F3BA
:10194000B1F800C00CEA03069E4220D183004FF09C
:101950000F0C0CFA03F7BC4305FA03FC4CEA040431
:1019600091F803C0BCF1280F06D14FF0010C0CFA1E
:1019700000FCC2F814C00AE091F803C0BCF1480FA3
:1019800005D14FF0010C0CFA00FCC2F810C0401C4D
:101990000828D1D31460B1F800C0BCF1FF0F34DDCA
:1019A000546800202EE000F1080C4FF0010808FAFE
:1019B0000CF3B1F800C00CEA03069E4221D183006B
:1019C0004FF00F0C0CFA03F7BC4305FA03FC4CEA8A
:1019D000040491F803C0BCF1280F05D100F1080CF4
:1019E00008FA0CF8C2F8148091F803C0BCF1480F53
:1019F00007D100F1080C4FF0010808FA0CF8C2F802
:101A00001080401C0828CED35460BDE8F081024607
:101A1000002093680B4201D0012000E000207047B5
:101A200002460020D3680B4201D0012000E00020D4
:101A3000704741617047016170470AB1016100E080
:101A40004161704701480068704700008C00002029
:101A5000014642F204004258001D4058824206DB13
:101A600042F204004258001D4058101A704742F2DA
:101A7000040040580A68024442F208004058101A14
:101A8000F4E72DE9F04107460C46384602F02CFBFE
:101A900010B90020BDE8F0813846FFF7D9FF85B2C4
:101AA000102D01D20020F5E7102221463846FFF71D
:101AB000BAFA3846FFF7CCFF85B26088103086B29C
:101AC000AE4201DD0020E5E732462146384601F00E
:101AD00067FA2046FFF79AFADCE700002DE9F047A5
:101AE00005460E4617469846DDF820901C2002F069
:101AF000ABFB04462560A680A77184F8078084F8B4
:101B000008900948E0600948206109486061094877
:101B1000A0610121182001F0A5F9211D2068FFF71F
:101B2000EDFE2046BDE8F087771B0108471B010842
:101B3000551B0108391B010810B50446A18820680F
:101B4000FFF765FF10BD10B50446A1882068FFF7B8
:101B500070FF10BD70B50446A1882068FFF760FFD4
:101B600008B9012000E000200546A1882A46206827
:101B7000FFF763FF70BD10B50446A1882068FFF72A
:101B80005AFF10BD00BFFEE721B1028842F4806217
:101B9000028004E002884FF6FF331A40028070474B
:101BA00070B502460024002500230020958A138B7F
:101BB0001B0445EA030626F07F4404EA01068E4230
:101BC00001D1012000E0002070BD21B1028842F067
:101BD0000102028004E002884FF6FE731A40028080
:101BE0007047000000B585B00121880501F01AF9A1
:101BF0000121092001F036F94FF44060ADF80000F2
:101C000003208DF802001C208DF80300694613485C
:101C1000FFF774FE124800F027F80020ADF8080026
:101C20004BF6FF70ADF80A003020ADF80C004FF411
:101C30008060ADF80E000001ADF810000948019079
:101C400001210748FFF7C1FF01A9054800F056F838
:101C500001210348FFF798FF05B000BD000C0140CB
:101C600000580040A086010010B504460B4884428D
:101C700009D10121480501F0E5F800214FF40010D9
:101C800001F0E0F808E00121880501F0DBF800210F
:101C90004FF4800001F0D6F810BD00000054004061
:101CA00021B1028842F48072028004E002884FF67B
:101CB000FF631A400280704721B1028842F400722B
:101CC000028004E002884FF6FF531A4002807047FA
:101CD00030B503460020002400221A460C0F21F0E4
:101CE0007F410CB1143201E0090C183215680D4225
:101CF00001D0012000E0002030BD00002DE9F043BC
:101D000085B004460D460026B1460427DFF8CC8096
:101D1000A6884FF6C0700640684601F0C3F8DDF8AB
:101D200008802F48B8FBF0F01FFA80F946EA090650
:101D3000A68020884FF6FE710840208000262949A1
:101D4000286888420CD828684000B8FBF0F087B2B9
:101D5000042F00DA04273E4309F10100208427E024
:101D6000E888A0F53F41FF3906D1286800EB400024
:101D7000B8FBF0F087B209E0286800EBC00101EB86
:101D80000010B8FBF0F087B247F480473805000D2B
:101D900001D147F0010747F4004006434FF4967025
:101DA00009FB00F04FF47A7190FBF1F0401C2084A5
:101DB000A683208840F00100208026884FF6F53069
:101DC0000640A8886989084306432680A88929898E
:101DD0000843208105B0BDE8F083000000127A00BE
:101DE00040420F00A08601002DE9F0478046894659
:101DF00016461F46089D002415B90120BDE8F0874E
:101E000041F2707400BF2046641E012804DAFFF717
:101E1000E9FE4FF0FF30F1E74FF400314046FFF7A5
:101E200057FF0028EFD101214046FFF7ADFE012109
:101E30004046FFF735FF41F2707400BF2046641E34
:101E4000012804DAFFF7CEFE4FF0FF30D6E7534902
:101E50004046FFF7A5FE0028F0D000224946404644
:101E600000F0A4F841F2707400BF2046641E0128FF
:101E700004DAFFF7B7FE4FF0FF30BFE748494046AE
:101E8000FFF78EFE0028F0D03112404600F097F8A0
:101E900041F2707400BF2046641E012804DAFFF787
:101EA000A1FE4FF0FF30A9E73D49891C4046FFF7EE
:101EB00077FE0028EFD0F1B2404600F080F841F202
:101EC000707400BF2046641E012804DAFFF78AFE02
:101ED0004FF0FF3092E73249891C4046FFF760FE21
:101EE0000028EFD001214046FFF7DAFE41F270747E
:101EF00000BF2046641E012804DAFFF773FE4FF08E
:101F0000FF307BE725494046FFF74AFE0028F0D026
:101F100001224946404600F049F841F2707400BF82
:101F20002046641E012804DAFFF75CFE4FF0FF3004
:101F300064E71A49491C4046FFF732FE0028EFD0FB
:101F400023E0012D07D100214046FFF71DFE0121AE
:101F50004046FFF7B1FE41F2707400BF2046641E98
:101F6000012804DAFFF73EFE4FF0FF3046E70B4949
:101F70003F314046FFF714FE0028EFD0404600F006
:101F800011F838707F1C681E85B2002DD9D101214F
:101F90004046FFF7F9FD002030E700000100030094
:101FA000820007000146088AC0B2704712B141F0B2
:101FB000010102E04FF6FE73194001827047018271
:101FC000704700002DE9F04781468A4616461F46B5
:101FD000DDF8208000240025B8F1000F02D1002098
:101FE000BDE8F08701214846FFF75AFE41F27074C0
:101FF00000BF2046641E012804DAFFF7F3FD4FF00E
:10200000FF30EDE72C494846FFF7CAFD0028F0D025
:10201000002251464846FFF7C9FF41F2707400BFE5
:102020002046641E012804DAFFF7DCFD4FF0FF3084
:10203000D6E722494846FFF7B3FD0028F0D03146E5
:102040004846FFF7BCFF41F2707400BF2046641E93
:10205000012804DAFFF7C6FD4FF0FF30C0E717494B
:10206000891C4846FFF79CFD0028EFD0002517E0AB
:10207000795D4846FFF7A3FF41F2707400BF204628
:10208000641E012804DAFFF7ADFD4FF0FF30A7E72B
:102090000A49891C4846FFF783FD0028EFD06D1CD4
:1020A0004545E5DB01214846FFF706FE4FF47A700F
:1020B00000F09CF8002093E7010003008200070075
:1020C0002DE9F04781468A4615461F46DDF82080F7
:1020D00000240026B8F1000F02D10020BDE8F087EF
:1020E00001214846FFF7DCFD41F2707400BF204635
:1020F000641E012804DAFFF775FD4FF0FF30EDE7AD
:1021000038494846FFF74CFD0028F0D000225146E0
:102110004846FFF74BFF41F2707400BF2046641E33
:10212000012804DAFFF75EFD4FF0FF30D6E72E49B5
:102130004846FFF735FD0028F0D029124846FFF742
:102140003EFF41F2707400BF2046641E012804DA8D
:10215000FFF748FD4FF0FF30C0E72349891C484690
:10216000FFF71EFD0028EFD0E9B24846FFF727FF32
:1021700041F2707400BF2046641E012804DAFFF7A4
:1021800031FD4FF0FF30A9E71749891C4846FFF79A
:1021900007FD0028EFD0002617E0B95D4846FFF79D
:1021A0000EFF41F2707400BF2046641E012804DA5D
:1021B000FFF718FD4FF0FF3090E70B49891C4846A8
:1021C000FFF7EEFC0028EFD0761C4645E5DB012149
:1021D0004846FFF771FD4FF47A7000F007F80020D1
:1021E0007CE70000010003008200070000BF01003F
:1021F000A0F1010290B2FAD1704710B504462CB19B
:102200002068FFF731FD204601F08EFF10BD000071
:1022100030B585B00546182002F016F80446256052
:10222000224860602248A0602248E0602248206185
:10223000224860610121880500F0F4FD0121092098
:1022400000F010FE4FF44060ADF8000003208DF860
:1022500002001C208DF8030069461948FFF74EFB69
:102260002068FFF701FD0020ADF808004BF6FF7075
:10227000ADF80A003020ADF80C004FF48060ADF8E6
:102280000E000001ADF810000E48019001212068F9
:10229000FFF79BFC01A92068FFF730FD01212068B2
:1022A000FFF772FC204605B030BD0000E9220108AE
:1022B00055260108852401085D270108FB21010836
:1022C000000C0140A086010070B504462068FFF7AD
:1022D0009FFF0546182229462046FDF755FF284650
:1022E00001F022FF70BD00002DE9F0470446894649
:1022F00090461F46089E002516B90120BDE8F087CC
:1023000041F2707500BF28466D1E012805DA20468F
:10231000FFF7DAFF4FF0FF30F0E74FF400312068AD
:10232000FFF7D6FC0028EED101212068FFF72CFC36
:1023300001212068FFF7B4FC41F2707500BF284608
:102340006D1E012805DA2046FFF7BEFF4FF0FF3073
:10235000D4E74A492068FFF723FC0028EFD0002289
:1023600049462068FFF722FE41F2707500BF2846FB
:102370006D1E012805DA2046FFF7A6FF4FF0FF305B
:10238000BCE73F492068FFF70BFC0028EFD041462F
:102390002068FFF714FE41F2707500BF28466D1EDD
:1023A000012805DA2046FFF78FFF4FF0FF30A5E741
:1023B0003349891C2068FFF7F3FB0028EED0012188
:1023C0002068FFF76DFC41F2707500BF28466D1E56
:1023D000012805DA2046FFF777FF4FF0FF308DE741
:1023E00026492068FFF7DCFB0028EFD00122494690
:1023F0002068FFF7DBFD41F2707500BF28466D1EB7
:10240000012805DA2046FFF75FFF4FF0FF3075E740
:102410001A49491C2068FFF7C3FB0028EED024E0CE
:10242000012E07D100212068FFF7AEFB01212068B3
:10243000FFF742FC41F2707500BF28466D1E01286F
:1024400005DA2046FFF740FF4FF0FF3056E70B4913
:102450003F312068FFF7A4FB0028EED02068FFF78B
:10246000A1FD38707F1C701E86B2002ED8D10121CC
:102470002068FFF789FB002040E70000010003000F
:10248000820007002DE9F047044689461646984623
:10249000089F002517B90120BDE8F08741F270754B
:1024A00000BF28466D1E012805DA2046FFF70CFF05
:1024B0004FF0FF30F0E74FF400312068FFF708FCE1
:1024C0000028EED101212068FFF75EFB0121206882
:1024D000FFF7E6FB41F2707500BF28466D1E01282C
:1024E00005DA2046FFF7F0FE4FF0FF30D4E75749FA
:1024F0002068FFF755FB0028EFD0002249462068EE
:10250000FFF754FD41F2707500BF28466D1E01288B
:1025100005DA2046FFF7D8FE4FF0FF30BCE74C4904
:102520002068FFF73DFB0028EFD031122068FFF74D
:1025300046FD41F2707500BF28466D1E012805DA80
:102540002046FFF7C1FE4FF0FF30A5E74049891C48
:102550002068FFF725FB0028EED031462068FFF702
:102560002EFD41F2707500BF28466D1E012805DA68
:102570002046FFF7A9FE4FF0FF308DE73449891C54
:102580002068FFF70DFB0028EED001212068FFF73F
:1025900087FB41F2707500BF28466D1E012805DAE1
:1025A0002046FFF791FE4FF0FF3075E7274920687E
:1025B000FFF7F6FA0028EFD0012249462068FFF71E
:1025C000F5FC41F2707500BF28466D1E012805DA42
:1025D0002046FFF779FE4FF0FF305DE71B49491CAD
:1025E0002068FFF7DDFA0028EED026E0012F07D1A2
:1025F00000212068FFF7C8FA01212068FFF75CFB83
:1026000041F2707500BF28466D1E012805DA20468C
:10261000FFF75AFE4FF0FF303EE70C493F3120688C
:10262000FFF7BEFA0028EED02068FFF7BBFC88F861
:10263000000008F10108781E87B2002FD6D10121D1
:102640002068FFF7A1FA002026E700000100030040
:10265000820007002DE9F04704468A46174698464F
:10266000DDF8209000250026B9F1000F02D10020EE
:10267000BDE8F08701212068FFF712FB41F2707579
:1026800000BF28466D1E012805DA2046FFF71CFE14
:102690004FF0FF30ECE72F492068FFF781FA002860
:1026A000EFD0002251462068FFF780FC41F27075A0
:1026B00000BF28466D1E012805DA2046FFF704FEFC
:1026C0004FF0FF30D4E724492068FFF769FA00286B
:1026D000EFD039462068FFF772FC41F2707500BFF9
:1026E00028466D1E012805DA2046FFF7EDFD4FF064
:1026F000FF30BDE71849891C2068FFF751FA002810
:10270000EED0002619E018F806102068FFF757FCF5
:1027100041F2707500BF28466D1E012805DA20467B
:10272000FFF7D2FD4FF0FF30A2E70B49891C20686C
:10273000FFF736FA0028EED0761C4E45E3DB012188
:102740002068FFF7B9FA4FF47A70FFF74FFD0020C9
:102750008EE7000001000300820007002DE9F0472A
:1027600004468A4616469846DDF820900025002744
:10277000B9F1000F02D10020BDE8F08701212068E7
:10278000FFF78EFA41F2707500BF28466D1E0128D2
:1027900005DA2046FFF798FD4FF0FF30ECE73B49A4
:1027A0002068FFF7FDF90028EFD00022514620688D
:1027B000FFF7FCFB41F2707500BF28466D1E012833
:1027C00005DA2046FFF780FD4FF0FF30D4E73049AF
:1027D0002068FFF7E5F90028EFD031122068FFF7F5
:1027E000EEFB41F2707500BF28466D1E012805DA28
:1027F0002046FFF769FD4FF0FF30BDE72449891CF3
:102800002068FFF7CDF90028EED031462068FFF7A9
:10281000D6FB41F2707500BF28466D1E012805DA0F
:102820002046FFF751FD4FF0FF30A5E71849891CFE
:102830002068FFF7B5F90028EED0002719E018F856
:1028400007102068FFF7BBFB41F2707500BF2846F8
:102850006D1E012805DA2046FFF736FD4FF0FF30E8
:102860008AE70B49891C2068FFF79AF90028EED007
:102870007F1C4F45E3DB01212068FFF71DFA4FF471
:102880007A70FFF7B3FC002076E700000100030038
:10289000820007004FF4005101600022091D0A5018
:1028A000091D0A50704700000748016849B90748E8
:1028B00000680068064A904201D10120704700205C
:1028C000FCE70020FAE7000000E807088C00002081
:1028D000AA55AA5510B500214FF0006000F07AFA11
:1028E0004FF00060406807490860084600680649E4
:1028F00008604FF000610868FDF72DFC0248006891
:10290000804710BD840000207C00002010B50446E4
:102910000D48006881690C48006888470A480068CB
:102920002146C269084800689047084800688169E4
:10293000064800688847054800682146C269034880
:102940000068904710BD000004000020080000202F
:1029500038B5012048230322C10300900E48FFF739
:10296000BDF804460D4B40F6B832012100F020F8C6
:102970000B49086001204823032201020090094806
:10298000FFF7ACF80446084B40F6B832012100F0DE
:102990000FF80649086038BD000C014017430108D4
:1029A0000400002000100140BF4201080800002080
:1029B0002DE9F04105460F4616469846202001F0C5
:1029C00043FC044625602771E680C4F80880002097
:1029D00020736073A073E07320746082207560754B
:1029E0000348A0610348E0612046BDE8F081000093
:1029F0001B2A0108F929010870B504460D46207B01
:102A000030B1A06810B12846A16888470020207323
:102A1000607B08B10020607370BD70B50446256806
:102A2000207938B12846A969884708B9012004E00F
:102A3000002002E02846A96988470646A07BB0B17D
:102A40004EB1608A0A306082608AE188884213D180
:102A50000120207310E0608A002805DD608AE1888B
:102A6000884201DA012060730020A07304E01EB1E7
:102A7000002060820120A07370BD70B504462568F7
:102A800028462969884770BD70B5044625682846E0
:102A9000E968884770BD000070B50546102001F058
:102AA000D3FB04462560044860600448A0600448E5
:102AB000E060204670BD0000892A01087B2A0108D9
:102AC000C52A010870B50446256828466969884703
:102AD00070BD000038B5012010230322014600908C
:102AE0002448FEF7FBFF0446FFF7D6FF22490860A3
:102AF000012010230322802100902048FEF7EEFFE2
:102B00000446FFF7C9FF1E49086001201023032275
:102B1000402100901948FEF7E1FF0446FFF7BCFF93
:102B200018490860012010230322810300901148F6
:102B3000FEF7D4FF0446FFF7AFFF134908600120FA
:102B400010230322410300900A48FEF7C7FF044602
:102B5000FFF7A2FF0D4908600120102303220103A3
:102B600000900448FEF7BAFF0446FFF795FF0849B6
:102B7000086038BD000C01405400002000100140E6
:102B8000580000205C00002060000020640000204D
:102B90006800002070B50546D5F8A44100F0AAFDF4
:102BA00043490968401AB0F5FA7F09D300F0A2FD45
:102BB0003F4908603F480068C1683E480068884750
:102BC00042F20200005D00283AD03B48006878B924
:102BD00000F090FD3849086038480068816837483F
:102BE000006888473648006881683548006888472B
:102BF00000F080FD33490968401A40F6B831884238
:102C000006D3002142F20200015500202A49086043
:102C100000F070FD2C490968401A642847D300F081
:102C200069FD2949086025480068C1682348006893
:102C3000884723480068C16821480068884736E013
:102C400000F058FD1F490968401AB0F5FA7F2ED3ED
:102C5000667800F04FFD1B49086066B917480068A8
:102C6000416816480068884715480068816814481C
:102C7000006888471AE0012E0CD11048006881686E
:102C80000E48006888470E48006841680C48006894
:102C900088470BE009480068416808480068884791
:102CA00007480068416806480068884700BF70BD53
:102CB0004000002054000020500000206000002050
:102CC00058000020480000204C0000202DE9F0476B
:102CD00004460E4615461F46DDE9088936B12DB17A
:102CE0002A46314604F11000FDF74EFA4AF25A50D6
:102CF000208027816580A4F80480A4F806902046EF
:102D0000FEF760F9BDE8F08700BFFEE7704710B539
:102D10004FF48031C80200F05DF84FF4A06000F07D
:102D20003BF810BD70B5002100230F22C4780CB30E
:102D3000164C246804F4E064C4F5E064210AC1F18F
:102D40000403CA40447804FA03F184781440214310
:102D500009010F4C0678A155047804F01F050124E1
:102D6000AC4005786D114FF0E02606EB8505C5F8FF
:102D7000004109E0047804F01F050124AC40054D32
:102D80000678761145F8264070BD00000CED00E095
:102D900000E400E080E100E002490143024A1160E2
:102DA000704700000000FA050CED00E010B50028A7
:102DB00007DA0A07140E054A00F00F031B1FD4544C
:102DC00003E00A07130E024A135410BD18ED00E089
:102DD00000E400E0024A0A400243024B1A607047D6
:102DE00080FFFF1F08ED00E0704700000146002053
:102DF000034A506820F44040084350607047000088
:102E00000010024029B1064A52690243044B5A613C
:102E100004E0034A52698243014B5A617047000043
:102E20000010024029B1064AD2690243044BDA611C
:102E300004E0034AD2698243014BDA617047000023
:102E40000010024029B1064A12690243044B1A617C
:102E500004E0034A12698243014B1A617047000083
:102E60000010024029B1064A92690243044B9A615C
:102E700004E0034A92698243014B9A617047000063
:102E80000010024029B1064AD2680243044BDA60BE
:102E900004E0034AD2688243014BDA6070470000C5
:102EA0000010024030B500210022002400232D4DE7
:102EB0006D6805F00C0121B1042905D0082923D142
:102EC00005E0294D056022E0284D05601FE0254DF5
:102ED0006D6805F47012234D6D6805F48034022589
:102EE00005EB92421CB9224D554305600BE01D4D88
:102EF0006D6815F4003F03D01E4D5543056002E098
:102F00001A4D5543056002E0174D056000BF00BF34
:102F1000144D6D6805F0F0010909174D6B5C0568EB
:102F2000DD4045600F4D6D6805F4E061090A124D02
:102F30006B5C4568DD4085600A4D6D6805F4605145
:102F4000C90A0D4D6B5C4568DD40C560054D6D6877
:102F500005F44041890B094D6B5CC568B5FBF3F581
:102F6000056130BD0010024000127A00001BB7005E
:102F700000093D00808D5B002C0000203C000020FB
:102F8000F8B504460D4616461F4633462A462146E6
:102F900002480097FEF728FFC0B2F8BD0058004075
:102FA00070B50346002016E042F20804E5581C1DE7
:102FB000645D0C5442F20804E458641C1D6894FBE0
:102FC000F5F605FB164542F20804E550441C204680
:102FD000944200D106E042F20804E558241FE45868
:102FE000A542E1D100BF70BDF8B504460D461646B6
:102FF0002B462246682103480096FEF7F5FEC0B234
:10300000F8BD00000058004070B504462568284609
:10301000E968884770BD70B5044625682846296967
:10302000884770BD38B5012010230322410200906B
:103030002B48FEF753FD044600F05CF82949086070
:10304000012010230322010200902748FEF746FDCD
:10305000044600F04FF8254908600120142303229C
:10306000802100902048FEF739FD044600F042F828
:103070001F4908601B48006841681A480068884773
:103080001A4800684168194800688847184800686D
:1030900041681748006888470A2000F05FFB114824
:1030A000006881680F48006888471E2000F056FBC2
:1030B0000E48006881680D48006888474FF48270A8
:1030C00000F04CFB0A48006881680948006888479E
:1030D00007480068C16806480068884738BD000096
:1030E0000010014018000020000801401C000020D2
:1030F0002000002070B50546102001F0A5F8044618
:103100002560044860600448A0600448E0602046F0
:1031100070BD000017300108093001082131010895
:10312000F8B505462C680421E17101200090E3798F
:10313000A279A1882068FEF7D1FC06461C22314600
:103140002046FDF721F8304600F0EEFFF8BD000004
:103150002DE9F04385B0074688461546994600207C
:10316000049000260024022004AB40F61C023946DD
:1031700000902848FEF738FE9DF811009DF81010C9
:1031800000EB012086B216F0200F02D0322000F0B2
:10319000E5FA002423E000208DF8040009EB840008
:1031A0000068CDF805000520009004F5016082B2AA
:1031B00001AB39461748FEF783FF08EB040188B2DC
:1031C00001A901F077F80220009004F6150082B200
:1031D00001AB39460F48FEF773FF601C84B2E91754
:1031E00005EB9171B4EBA10FD5DB46F02006301250
:1031F0008DF81000F0B28DF81100022004AB40F6FB
:103200001C02394600900348FEF75AFF05B0BDE89E
:10321000F083000000580040F8B504460D461646FD
:103220001F463B462A46214602480096FEF748FFC5
:10323000F8BD00000058004070470000F0B504469B
:103240000E460025A11C607820B1012804D0022878
:1032500008D104E0002505E04FF4005502E04FF4EA
:10326000804500BF00BF05F1400085B208680F4FE0
:10327000B84218D1002000BF11E001F1400707EB70
:103280008017B7F80170974207D105EB80171F80B0
:1032900001F1400707EB8016F0BD471CB8B20F895B
:1032A0008742EADC00BF002600BFF5E7AA55AA5511
:1032B0002DE9F04104460F464FF00008A51C37B138
:1032C000012F07D0022F08D0032F10D108E04FF0B4
:1032D00000080CE04FF4005809E04FF4804806E085
:1032E000617842F2040002592046904700BF00BFB7
:1032F000032F05D042F2100002593946204690476C
:1033000040232A464146A020FFF73AFE08F140003C
:103310001FFA80F82868194988422CD1002628898C
:103320007F2801DDBDE8F081012142F20200015554
:1033300028894FF6FF7101EA801305F1400000EB88
:1033400086124146A020FFF71BFE00260FE005F184
:10335000400000EB861142F208000359002220468B
:10336000984708F140001FFA80F8701C86B228893F
:10337000B042ECDC00BF00BFD4E70000AA55AA555C
:103380002DE9F84305460C4617464FF00108B4F8FE
:10339000010010B9E079287022E0B4F80100A0F52E
:1033A0004071FE390BD1E279A07902EB002081B2A5
:1033B0000422D02000F07CF94FF0000810E0B4F8AF
:1033C0000100A0F54071FF390AD1E279A07902EB42
:1033D000002081B20222D02000F06AF94FF00008EC
:1033E000B8F1000F11D0E078042807DDE278B4F8D6
:1033F0000110231D6820FFF7ABFE06E0E278B4F869
:103400000110231D6820FFF7A3FEC7B10026B4F802
:10341000012042F20C0050F805C06B4631462846A8
:10342000E0475EB1402221463046FCF7ADFE402326
:103430002246BDF80010A02000F07AFD00BFBDE8D4
:10344000F883000010B542F2140000F0FDFE0446BF
:1034500000202070002142F2020001550020C4F833
:1034600002006181104942F2040001510F49001D20
:1034700001510F49001D01510E49001D0151012349
:10348000621C4FF4C041A020FFF77AFD607802284B
:1034900007DD0020607042F2100002590021204632
:1034A0009047204610BD0000B13201088133010869
:1034B0003D320108B934010870B504460D46657007
:1034C0000123621C4FF4C041A02000F031FD70BD0B
:1034D0002DE9FC4104460D4616461F46DDF82080C6
:1034E0004FF482610948FCF768FE33462A462146BC
:1034F0000648CDE90078FFF7E9FB0448408800F171
:103500001001024800F09EFCBDE8FC81AC000020E8
:103510001CB504464FF482610948FCF74EFE532067
:1035200000231A461946CDE900040548FFF7CEFBF3
:103530000348408800F11001014800F083FC1CBDE5
:10354000AC00002010B500F001F810BD00210020F3
:103550002E4A126842F480322C4B1A6000BF2B4A6C
:10356000126802F40030491C10B9B1F5A06FF6D111
:10357000264A126812F4003F01D0012000E000202A
:10358000012842D1224A126842F01002204B1A60F0
:103590001A46126822F003021A601A46126842F0B4
:1035A00002021A60194A5268184B5A601A46526849
:1035B0005A601A46526842F480625A601A4652684B
:1035C00022F47C125A601A46526842F488125A60F9
:1035D0001A46126842F080721A6000BF0B4A1268E5
:1035E00012F0007FFAD0094A526822F00302074B1A
:1035F0005A601A46526842F002025A6000BF034AFB
:10360000526802F00C02082AF9D1704700100240FB
:103610000020024010B5012080F3108800BFC006D2
:1036200040680749086008460068064908604FF08E
:1036300000610868FCF78FFD02480068804710BDF4
:10364000840000207C00002010B500F093F810BD2D
:1036500010B51348006840F00100114908600846A1
:103660004068104908400E494860084600680E4905
:1036700008400B4908600846006820F48020086074
:103680000846406820F4FE0048604FF41F00886040
:10369000FFF758FF4FF000600449086010BD0000BC
:1036A000001002400000FFF8FFFFF6FE08ED00E00A
:1036B000FEB505460C4616460120029000200190FA
:1036C00020128DF80400E0B28DF80500022001AB55
:1036D0003246294600900648FEF774FC012002ABF2
:1036E0000822294600900248FEF76CFCFEBD00004F
:1036F0000058004001480068704700002400002086
:1037000030B585B005461448456000201249086070
:103710006846FFF7C7FB64210098B0FBF1F4B4F1F1
:10372000807F00D311E024F07F40401E4FF0E02165
:1037300048610F214FF0FF30FFF738FB00204FF0BA
:10374000E02188610720086100BF0121881EFFF782
:103750002DFB05B030BD000024000020044A126893
:10376000111800BF024A12688A42FBD3704700005A
:1037700024000020034800680249496808440149C0
:1037800008607047240000202DE9FC4104460D46E6
:10379000002700200190266802200090217901ABCB
:1037A0002A463046D6F804C0E0479DF805009DF84B
:1037B000041000EB012087B23846BDE8FC81000010
:1037C0007CB50546102000F03FFD04462560D02062
:1037D00020710848A0600848E060002001900120A6
:1037E0000090217901AB02462846AE68B0472046DA
:1037F0007CBD0000FD37010889370108FEB504468D
:103800000D461746012002900020019026682812DC
:103810008DF80400E8B28DF80500022000902179AF
:1038200001AB3A463046D6F808C0E0470120009088
:10383000217902AB08223046D6F808C0E047FEBD29
:1038400000B591B000214E4800F096F901210846DC
:10385000FFF708FB01210846FFF7D4FA0F208DF887
:103860002C0001208DF82D008DF82E008DF82F00F2
:103870000BA8FFF757FA4348FDF75CFC4048001DD2
:10388000009041480190002002904FF400600390A6
:10389000002004908020059000200690079008905A
:1038A0004FF40050099000200A9069463548FDF712
:1038B0000AFD012202213348FDF7FCFC01213148B9
:1038C000FDF72CFC012144F20400FFF7CBFA4FF482
:1038D0000070ADF8400018208DF8430003208DF8EB
:1038E000420010A92948FEF709F84FF48060ADF8AE
:1038F000400004208DF8430003208DF8420010A9F9
:103900002248FDF7FBFF4FF4E1300C900020ADF8AA
:103910003400ADF83600ADF83800ADF83C000C20AE
:10392000ADF83A000CA9164800F0DAF925208DF818
:103930002C0001208DF82D008DF82E008DF82F0021
:103940000BA8FFF7EFF9002240F225510C4800F0D8
:10395000A1F9002240F22661094800F09BF90122FA
:1039600040F22441064800F095F901224021044824
:1039700000F00EF90121024800F0FEF811B000BD80
:103980000038014058000240BC04002000080140FB
:1039900010B540F22441104800F052F9D0B10E4861
:1039A0000488001D048800210C48FDF7B7FB0B4874
:1039B000FDF766FCC0F5006422460949094800F09D
:1039C0001FFB4FF400610548FDF79BFC01210348F4
:1039D000FDF7A4FB10BD0000003801405800024074
:1039E000BC040020BC14002000B58DB001210846A5
:1039F000FFF738FA01210846FFF704FA10208DF886
:103A00002C0001208DF82D008DF82E008DF82F0050
:103A10000BA8FFF787F93D48FDF78CFB3C48009069
:103A20003C480190002002904FF400600390002079
:103A300004908020059000200690079008904FF495
:103A40000050099000200A9069463048FDF73BFC81
:103A5000012202212D48FDF72DFC01212B48FDF705
:103A60005DFB01214804FFF7DDF901210420FFF788
:103A7000F9F90420ADF8300018208DF83300032048
:103A80008DF832000CA92448FDF738FF0820ADF866
:103A9000300004208DF8330003208DF832000CA98B
:103AA0001D48FDF72BFF1D4803C800F0E7F926204D
:103AB0008DF82C0001208DF82D008DF82E008DF84A
:103AC0002F000BA8FFF72EF9002240F225511048D5
:103AD000001F00F0DFF8002240F226610C48001FB2
:103AE00000F0D8F8012240F224410948001F00F0FC
:103AF000D1F8012240210648001F00F049F80121B9
:103B00000348001F00F038F80DB000BD6C00024003
:103B100004440040BC0C0020000801406C00002060
:103B200010B540F22441104800F08AF8D0B10E4898
:103B30000488001D048800210C48FDF7EFFA0B48AB
:103B4000FDF79EFBC0F5006422460949094800F0D4
:103B500057FA4FF400610548FDF7D3FB01210348F4
:103B6000FDF7DCFA10BD0000004400406C0002408C
:103B7000BC0C0020C834002021B1828942F40052DC
:103B8000828104E082894DF6FF731A40828170477A
:103B90001AB1838A0B43838202E0838A8B43838238
:103BA0007047000010B504462048844209D1012125
:103BB0008803FFF767F900214FF48040FFF762F9AF
:103BC00032E01B48844209D101214804FFF73AF949
:103BD00000214FF40030FFF735F925E01548844205
:103BE00009D101218804FFF72DF900214FF480202D
:103BF000FFF728F918E01048844209D10121C804D0
:103C0000FFF720F900214FF40020FFF71BF90BE02C
:103C10000A48844208D101210805FFF713F9002161
:103C20004FF48010FFF70EF910BD0000003801407E
:103C30000044004000480040004C0040005000405C
:103C400070B502460024002300250020A1F510666F
:103C50006A3E00D100BFC1F3421501F01F030126E7
:103C600006FA03F3012D02D19689334006E0022DB6
:103C700002D1168A334001E0968A33400C120126A5
:103C800006FA04F41688344013B10CB1012000E0A8
:103C9000002070BDF0B5034600240026002500205A
:103CA000A1F510676A3F00D100BF1846C1F3421466
:103CB00001F01F06012707FA06F5012C01D10C308F
:103CC00004E0022C01D1103000E014301AB1076872
:103CD0002F43076002E00768AF430760F0BD0000B4
:103CE0002DE9F04786B005460E460024A24600BFE7
:103CF000A1460027B08900B100BF2F462C8A4CF6A0
:103D0000FF700440F08804432C82AC894EF6F31017
:103D10000440B08831890843718908430443AC8169
:103D2000AC8A4FF6FF400440B0890443AC8201A83E
:103D3000FFF7B8F81F48874202D1DDF810A001E074
:103D4000DDF80CA0A88910F4004F08D00AEBCA00D7
:103D500000EB0A1031684900B0FBF1F807E00AEB0C
:103D6000CA0000EB0A1031688900B0FBF1F864204A
:103D7000B8FBF0F004012009642101FB1089A88937
:103D800010F4004F08D0322000EBC900B0FBF1F076
:103D900000F00700044308E0322000EB0910642122
:103DA000B0FBF1F000F00F0004432C8106B0BDE839
:103DB000F08700000038014003B5002100BF07E094
:103DC000194A52F821200098904200D102E0491C83
:103DD0000729F5D300BF072901D103200CBD9DF8A9
:103DE000070008B10320F9E79DF8060048B19DF8E7
:103DF0000600022805D09DF80600012801D0032006
:103E0000ECE79DF80500012805D09DF80500022883
:103E100001D00320E2E79DF80400082801D0032028
:103E2000DCE70020DAE70000604701080246D00521
:103E3000C870030A8B70030C4B70030E0B70704735
:103E400000BFFEE710B50246002000BF0AE000BF39
:103E5000094B1B8813F0400FFAD0135C064C241D4D
:103E60002380401C8842F2D300BF034B1B8813F011
:103E7000400FFAD010BD00000038014003B585B0F6
:103E8000DDE90501FFF798FF10B1032007B000BD81
:103E900000212548FFF770FE059801909DF8180055
:103EA000082803D10020ADF8080000BF00BF9DF82E
:103EB0001900012802D0022809D103E00020ADF842
:103EC0000A0004E04FF40050ADF80A0000BF00BF44
:103ED0009DF81A0020B1012806D002280ED108E072
:103EE0000020ADF80C0009E04FF4C060ADF80C0004
:103EF00004E04FF48060ADF80C0000BF00BF00206C
:103F0000ADF810000C20ADF80E0001A90648FFF72F
:103F1000E7FE01210448FFF72FFE0448DDE9051202
:103F200006C00020B2E70000004400406C00002002
:103F30002DE9F84F80460C46174699460025BA46AB
:103F40004E46E11704EB91618911B4EB81112FD03A
:103F5000A346E01704EB90608011A4EB8010C0F141
:103F6000400080B23B462246414600902348FEF77F
:103F7000A7F82046E11704EB91618911A4EB8112A7
:103F800004F14001891A8CB22046E11704EB9161DB
:103F90008911A4EB8111C1F1400101EB070AE1177E
:103FA00004EB91618911A4EB8111C1F14001761AF2
:103FB0001EE0402E0BDD40200AEB8513009004EB41
:103FC000851082B241460D48FEF77AF80AE0B0B299
:103FD0000AEB8513009004EB851082B24146074836
:103FE000FEF76EF8403E681C85B21420FFF7B6FB62
:103FF000002EDEDC0020BDE8F88F000000580040F5
:1040000070B50346002016E00D5C42F20404E65849
:104010001C1DA55542F20404E458641C1D6894FB61
:10402000F5F605FB164542F20404E550441C204613
:10403000944200D10DE042F20404E458641C1D686F
:1040400094FBF5F605FB164542F20804E458A54238
:10405000DAD100BF70BD02E008C8121F08C1002AF3
:10406000FAD170477047002001E001C1121F002AF9
:10407000FBD1704710B5FEF717FC00B910BD15480D
:10408000022240F61C0103686820FFF7C5F81248B9
:104090004FF4A0524FF4806103686820FFF7BCF82A
:1040A0000E484FF48052002103686820FFF7B4F8EF
:1040B0000B48182240F61C0103686820FFF7ACF893
:1040C0000848022240F61C0103686820FFF7A4F8A4
:1040D00000BFD3E79800002090000020940000204B
:1040E0009C000020A000002038B504461BE0002002
:1040F00000902046FDF7ACFC022801D2002038BD1C
:10410000022269462046FCF78EFFBDF80000A0F5AC
:1041100025415A3901D10120F1E7012269462046A3
:10412000FEF73EFF00BFE2E710B5002821D0114B9B
:10413000001F0022196803E0814203D80A4649683B
:104140000029F9D152B11368841A9C4204D1006845
:1041500018441060104602E0506000E0186039B169
:1041600002680B1A934203D10B681A440260496833
:10417000416010BDA4000020ADF5826D0025002631
:10418000FFF766FAFEF7C3FD002080F3108800BF3A
:104190000A20FFF7B5FA002080F3108800BFFCF773
:1041A000D1FB0446FEF796FCFEF73CFF2448FEF7E1
:1041B00071FB2448FEF76EFBFFF742FBFFF714FC90
:1041C000FEF7C6FBFFF756FF3220FFF7C7FAFFF7EF
:1041D00039F9C4F8A40142F20401D4F8A4010A5840
:1041E000032190472BE00BE0BDF8040054F82000B9
:1041F00030B1BDF8040054F82020694620469047AD
:1042000069460F48FDF73DFC0028EDD1FFF772FA33
:10421000401B0A2805D3FFF76DFA05462046FEF736
:1042200075FBFFF767FA801BC82805D3FFF762FA12
:1042300006462046FCF724FD2046FEF7ABFCD2E7FD
:10424000BC140020C8340020F0B50B30154D20F010
:1042500007010024144A0FE003688B420BD38B4202
:1042600005D95E1A43184768C3E9006700E0436850
:10427000136002C004E0021D10680028ECD1204643
:10428000002802D1286808B10020F0BD064A07487E
:104290001060074A121A22F00702C0E90024012028
:1042A0002860D7E7A8000020A4000020EC580020D8
:1042B000E8A800200A460312137050707047F8B542
:1042C0000646D6F8A4410025207810B901202070B8
:1042D00001E0002020704020FFF7B6FF05460020D7
:1042E000A5F801002178E9710420E8700020287009
:1042F00042F20800035901222946204698472846E1
:10430000FFF712FF00204623024640210090284676
:10431000FFF7DEF8F8BD7CB50546D5F8A441607816
:1043200010B9012060700AE06078012802D10220F3
:10433000607004E06078022801D10020607061782C
:1043400042F2040002592046904760780190002014
:10435000472302460121009001A8FFF7B9F87CBD70
:1043600000000000963007772C610EEEBA510999D3
:1043700019C46D078FF46A7035A563E9A395649E2F
:104380003288DB0EA4B8DC791EE9D5E088D9D29753
:104390002B4CB609BD7CB17E072DB8E7911DBF90AF
:1043A0006410B71DF220B06A4871B9F3DE41BE84D3
:1043B0007DD4DA1AEBE4DD6D51B5D4F4C785D3832F
:1043C00056986C13C0A86B647AF962FDECC9658AD3
:1043D0004F5C0114D96C0663633D0FFAF50D088D2F
:1043E000C8206E3B5E10694CE44160D5727167A2D3
:1043F000D1E4033C47D4044BFD850DD26BB50AA52F
:10440000FAA8B5356C98B242D6C9BBDB40F9BCAC52
:10441000E36CD832755CDF45CF0DD6DC593DD1ABAE
:10442000AC30D9263A00DE518051D7C81661D0BFD2
:10443000B5F4B42123C4B3569995BACF0FA5BDB82E
:104440009EB802280888055FB2D90CC624E90BB1D2
:10445000877C6F2F114C6858AB1D61C13D2D66B62E
:104460009041DC760671DB01BC20D2982A10D5EF92
:104470008985B1711FB5B606A5E4BF9F33D4B8E8EE
:10448000A2C9077834F9000F8EA8099618980EE192
:10449000BB0D6A7F2D3D6D08976C6491015C63E6EE
:1044A000F4516B6B62616C1CD83065854E0062F212
:1044B000ED95066C7BA5011BC1F4088257C40FF56E
:1044C000C6D9B06550E9B712EAB8BE8B7C88B9FC92
:1044D000DF1DDD62492DDA15F37CD38C654CD4FBEE
:1044E0005861B24DCE51B53A7400BCA3E230BBD492
:1044F00041A5DF4AD795D83D6DC4D1A4FBF4D6D3EE
:104500006AE96943FCD96E34468867ADD0B860DA91
:10451000732D0444E51D03335F4C0AAAC97C0DDDED
:104520003C710550AA41022710100BBE86200CC911
:1045300025B56857B3856F2009D466B99FE461CE6D
:104540000EF9DE5E98C9D9292298D0B0B4A8D7C791
:10455000173DB359810DB42E3B5CBDB7AD6CBAC0ED
:104560002083B8EDB6B3BF9A0CE2B6039AD2B17409
:104570003947D5EAAF77D29D1526DB048316DC7365
:10458000120B63E3843B64943E6A6D0DA85A6A7A09
:104590000BCF0EE49DFF099327AE000AB19E077D65
:1045A00044930FF0D2A3088768F2011EFEC2066989
:1045B0005D5762F7CB67658071366C19E7066B6EE5
:1045C000761BD4FEE02BD3895A7ADA10CC4ADD6709
:1045D0006FDFB9F9F9EFBE8E43BEB717D58EB06065
:1045E000E8A3D6D67E93D1A1C4C2D83852F2DF4F09
:1045F000F167BBD16757BCA6DD06B53F4B36B24865
:10460000DA2B0DD84C1B0AAFF64A0336607A044108
:10461000C3EF60DF55DF67A8EF8E6E3179BE694664
:104620008CB361CB1A8366BCA0D26F2536E2685288
:1046300095770CCC03470BBBB91602222F260555E4
:10464000BE3BBAC5280BBDB2925AB42B046AB35C08
:10465000A7FFD7C231CFD0B58B9ED92C1DAEDE5B64
:10466000B0C2649B26F263EC9CA36A750A936D0248
:10467000A906099C3F360EEB8567077213570005A4
:10468000824ABF95147AB8E2AE2BB17B381BB60CC8
:104690009B8ED2920DBED5E5B7EFDC7C21DFDB0B24
:1046A000D4D2D38642E2D4F1F8B3DD686E83DA1F48
:1046B000CD16BE815B26B9F6E177B06F7747B718A4
:1046C000E65A0888706A0FFFCA3B06665C0B011148
:1046D000FF9E658F69AE62F8D3FF6B6145CF6C16A4
:1046E00078E20AA0EED20DD75483044EC2B3033948
:1046F000612667A7F71660D04D476949DB776E3EA4
:104700004A6AD1AEDC5AD6D9660BDF40F03BD837C7
:1047100053AEBCA9C59EBBDE7FCFB247E9FFB53023
:104720001CF2BDBD8AC2BACA3093B353A6A3B42447
:104730000536D0BA9306D7CD2957DE54BF67D923A3
:104740002E7A66B3B84A61C4021B685D942B6F2A47
:1047500037BE0BB4A18E0CC31BDF055A8DEF022DA3
:1047600000C2010000E1000000960000004B0000C4
:1047700080250000C0120000600900004A616E2020
:10478000203820323032300032323A34393A30393F
:1047900000000000B447010800000020AC00000049
:1047A0005640010860480108AC0000203CAE000003
:1047B000664001080000000000000000000000004A
:1047C0007C47010888470108000401080000000038
:1047D00000000000000000000000000000000000D9
:1047E0000000000001020304010203040607080997
:1047F00002040608000000000000000000000000A5
:1048000000000000000000000000000000000000A8
:104810000000000000000000000000000000000098
:1048200080250000080100000000000000000000DA
:104830000000000000000000000000000000000078
:104840000000040840000408401404084024040840
:10485000422404085A24040800000000000000005C
:0400000508010131BC
:00000001FF
