:020000040800F2
:10000000D8AE0020650100083B260008BD17000897
:10001000392600084D0E0008D1330008000000000A
:10002000000000000000000000000000492A000855
:10003000CD11000800000000E9260008312D00085D
:100040007F0100087F0100087F0100087F01000890
:100050007F0100087F0100087F0100087F01000880
:100060007F0100087F0100087F0100087F01000870
:100070007F0100087F0100087F010008D50E0008FD
:10008000290F00087F0100087F0100087F01000898
:100090007F0100087F0100087F0100087F01000840
:1000A0007F0100087F0100087F0100087F01000830
:1000B0007F0100087F0100087F0100087F01000820
:1000C0007F0100087F0100087F0100087F01000810
:1000D0007F01000825300008A53100087F010008D5
:1000E0007F0100087F0100087F0100087F010008F0
:1000F0007F0100087F0100087F0100087F010008E0
:100100007F0100087F0100087F0100087F010008CF
:100110007F0100087F0100087F0100087F010008BF
:100120007F0100087F0100087F0100087F010008AF
:10013000DFF80CD000F0F8FA004800475936000804
:10014000D8AE0020EFF30980704780F3098870472C
:10015000EFF30880704780F30888704740BA704713
:10016000C0BA70470648804706480047FEE7FEE7EA
:10017000FEE7FEE7FEE7FEE7FEE7FEE7FEE7FEE757
:10018000352D00083101000840EA01039B0703D028
:1001900009E008C9121F08C0042AFAD203E011F8C6
:1001A000013B00F8013B521EF9D27047D2B201E088
:1001B00000F8012B491EFBD270470022F6E710B56C
:1001C00013460A4604461946FFF7F0FF204610BDC5
:1001D0000146002000E0401C0A5C002AFBD1704769
:1001E000420005D0C0F3C7525242914201DC0020C8
:1001F000704700EBC15070472DE9FE4F804681EA01
:100200000300C00F0C46009021F0004123F0004590
:10021000B8EB0200A94105D24046214690461C4653
:100220000B46024623F00040104304D140462146CD
:1002300003B0BDE8F08F270DC7F30A00C3F30A51DE
:100240000290401A0190402866DAC3F3130040F48C
:10025000801B0098924620B10023D2EB030A63EB87
:100260000B0B01985946C0F14002504600F0A5F929
:1002700006460D4650465946019A00F0ADF910EB7E
:1002800008006141002487EA115284EAE7731A43A7
:100290003BD0009A3AB3019A012A4FEA075210DC88
:1002A000001B61EB02014FF0004202EA0752CDE968
:1002B0000042001C41F5801132462B4600F0E1F966
:1002C000B6E7001B61EB0201001C41F5801300182A
:1002D0005B412018A2F5001747EB030140EAD570F7
:1002E000B6196D4111E06D084FEA360645EAC07552
:1002F0004FEA0752001B61EB0201001C41F580111F
:1003000049084FEA30000019514132462B4603B0EC
:10031000BDE8F04F00F0A8B900980122400000238A
:10032000D0EB020263EBE073009821464FEAE074E1
:10033000B8EB000061EB0401E9E783F000435BE701
:1003400081F0004158E72DE9FE4F81EA030404F0F3
:10035000004421F0004100944FF0000B23F00043D3
:1003600050EA010402D052EA030404D100200146FD
:1003700003B0BDE8F08FC3F30A54C1F30A552C440F
:10038000A4F2F3340194A0FB0254C1F3130141F42D
:100390008011C3F3130343F4801301FB024400FBF9
:1003A000034E840A970A44EA815447EA8357A4FB20
:1003B000076802958D0A05FB07854FEA932C04FB1D
:1003C0000C542705029D4FEA065847EA1637B5EB4D
:1003D00008056EEB070C870E920E47EA811742EA7A
:1003E0008312A7FB0201B6EB0B0164EB00042B0D9B
:1003F00043EA0C335E1844EB1C50DA465146E7FBE7
:100400000201C5F313044FEA0B3343EA14534FEAD6
:100410000432019C43EA0603A4F10C040294009CFC
:10042000CDE900B400F02DF9A2E72DE9F04D81EA05
:10043000030404F0004B21F0004514464FF0000A7D
:1004400023F0004150EA050220D054EA01021DD0F9
:10045000C5F30A570246C5F31303C1F31300C1F3F2
:100460000A5640F4801543F48013A7EB0608101BCE
:10047000D64608F2FD3873EB050002D308F10108F7
:1004800001E092185B41B8F1000F03DA0020014649
:10049000BDE8F08D00204FF48011064684460EE042
:1004A000171B73EB050705D3121B63EB050306430C
:1004B0004CEA010C49084FEA300092185B4150EABF
:1004C0000107EDD152EA030012D082EA040083EA68
:1004D0000501084303D100224FF0004308E0101B40
:1004E000AB4102D20122002302E06FF0010253105F
:1004F0001AEB06004CEB085110EB0A0041EB0B0124
:10050000BDE8F04D00F0B0B870B521F000430343F2
:100510000CD0C1F30A550024D5EB040564EB0403A9
:10052000D617AD1AB34102DB0020014670BD20187A
:1005300041EB025170BD0EB540F2334102910021F2
:10054000CDE900110A460B4600F09BF803B000BD50
:1005500000F0004220F00040C10DC0F3160040F44E
:1005600000007F2901DA00207047962903DCC1F1E1
:100570009601C84001E096398840002AF4D04042F4
:10058000704701F0004330B421F0004150EA01020D
:1005900006D00A0DA2F56072C1F31301002A02DC35
:1005A00030BC00207047440F44EAC104C100E01889
:1005B00030BC00EBC25000F021B8202A04DB203A06
:1005C00000FA02F1002070479140C2F1200320FAA6
:1005D00003F3194390407047202A06DBCB17203ADB
:1005E00041FA02F043EAE07306E041FA02F3D04038
:1005F000C2F1200291400843194670470029A8BF64
:100600007047401C490008BF20F00100704710B43B
:10061000B0FA80FC00FA0CF050EA010404BF10BCF0
:10062000704749B1CCF1200421FA04F411FA0CF11D
:1006300018BF012121430843A3EB0C01CB1D010688
:10064000000A002BBEBF002010BC704700EBC35057
:1006500010440029A4BF10BC7047401C490008BFCB
:1006600020F0010010BC704710B5002B08DA401CC8
:1006700041F1000192185B411A4301D120F00100C1
:1006800010BD2DE9F04D92469B4611B1B1FA81F2B1
:1006900002E0B0FA80F220329046FFF78EFF044667
:1006A0000F4640EA0A0041EA0B0153465A46084306
:1006B00003D120463946BDE8F08D114653EA0100CA
:1006C00015D0C8F14002504600F040F805460E46ED
:1006D000504659464246FFF770FF084301D00120BB
:1006E00000E00020054346EAE0762C4337430A98B1
:1006F0004FEA4453A0EB08004FEAD4240A304FF0ED
:10070000000244EA47544FEAD72502D500200146AB
:10071000D1E7010510196941DDE908450019694172
:10072000BDE8F04DA0E70000064C074D06E0E0688C
:1007300040F0010394E8070098471034AC42F6D328
:10074000FFF7FAFC343C0008543C0008202A04DB84
:10075000203A21FA02F00021704721FA02F3D0403A
:10076000C2F1200291400843194670470029816870
:1007700002D041F0010101E021F0010181607047E8
:100780000029816802D041F4807101E021F4807178
:1007900081607047014600208968490700D5012023
:1007A0007047014600208968090700D5012070477D
:1007B00010B542680E4B0C791A400B6842EA0422CD
:1007C0001343436083680B4A1340D1E9024222433A
:1007D0004C7943EA44031A438260C26A097C22F4DA
:1007E0007002491EC9B242EA0151C16210BD000047
:1007F000FFFEF0FFFDF7F1FF70B5072509290AD9C3
:10080000C468A1F10A0606EB4606B540AC43B34006
:100810001C43C46007E0046901EB4106B540AC43EA
:10082000B3401C4304611F23072A09D2446B521EA4
:1008300002EB820293409C4391400C43446370BDA1
:100840000D2A09D2046BD21F02EB820293409C4313
:1008500091400C43046370BDC46A0D3A02EB8202FE
:1008600093409C4391400C43C46270BD816841F049
:100870000801816070470029816802D041F4A0011D
:1008800001E021F4A00181607047816841F004011A
:100890008160704770B54FF4D475284602F03CFF74
:1008A00004462946FFF789FC1D4801F051FAA0349F
:1008B000C4F8F00002F0D8FAC4F8F400D4F8F0005C
:1008C00000F012FDC4F8F800D4F8F00000F080FC4D
:1008D000C4F8FC0000F038FAC4F80001114844F8EC
:1008E000780C114844F8740C104844F8500C104827
:1008F000E06210482063104860631048A06310480D
:10090000E06310482064104860641048A0641048F8
:10091000E06702F041F9C4F80401A4F1A00070BD41
:1009200000580040190A00085509000899090008F4
:10093000EB0900083D0B0008C1090008130B000873
:10094000790A0008F90A0008670B0008A30A0008E2
:10095000CF0A00081CB501200190C8880022009031
:100960000B231146104602F04FF900F0A1FD084C90
:10097000204600F027FD042201A9204600F034FDA6
:1009800000F0FEFD00F00EFD024800F0BDFBF9E7AF
:1009900000E00708C018002038B5084C0D46206854
:1009A000FFF716FC401C81B2E88800901423002257
:1009B000206802F029F9002038BD0000380000202E
:1009C00038B50C4601F110054A8A088A143101F045
:1009D0004DFFE088009068883523001D81B2002219
:1009E000284602F011F9002038BD38B50C4601F157
:1009F00010054B8A098A04F11402A02001F010FFAF
:100A0000E088009068883323001D81B200222846C8
:100A100002F0FAF8002038BD7CB501240194C888A2
:100A2000002200900A231146104602F0EDF800F073
:100A30003FFD0D4D284600F0C5FC042201A92846C3
:100A400000F0D2FC00F09CFD084800F01BFF0848B5
:100A500002F0E8FB074802F0E5FB84F3108801F0A0
:100A600061FC00207CBD000000E807080054004045
:100A7000003801400044004038B50C4601F1100533
:100A80004A8A098A04F11403682001F075FFE0889E
:100A90000090372300220421284602F0B5F80020F8
:100AA00038BD38B50C46D0F8A40101F1100542F26A
:100AB000080101220B5829469847E08800903A2304
:100AC00000224021284602F09FF8002038BD1CB5C6
:100AD0000C46D0F8A401097C42F204028DF80410FF
:100AE00012589047E088009047230022012101A876
:100AF00002F08AF800201CBD38B50C4600F0C6FD97
:100B0000E188009138230022402102F07DF8002086
:100B100038BD38B50C4601F110054A8A098A04F13E
:100B20001403682001F086FFE0880090362300223D
:100B30000421284602F068F8002038BD38B50C467C
:100B400001F110054B8A098A04F11402A02002F079
:100B5000BFFCE0880090342300220421284602F0E4
:100B600053F8002038BD38B50C46D0F8A40101F187
:100B7000100542F2080101220B5829469847E088E7
:100B80000090392300224021284602F03DF8002041
:100B900038BD00002DE9F84F0446D0F8A001816C63
:100BA00088475E490646D4F8A4510888864274D026
:100BB00004D900F10200B0426FD802E0B21C8242B8
:100BC0006BD80E80402002F0A7FD044640F6273087
:100BD000012304274FF0030986421DD301206946F3
:100BE00002F0ECFBE7709DF8000020719DF8010019
:100BF00060719DF80200A0719DF80300E07105F599
:100C00000056A4F80130B3680122214628469847CF
:100C1000A4F80190B36875E00020694602F0CEFBAD
:100C2000E7709DF8000020719DF8010060719DF84B
:100C30000200A071B8469DF80300E07105F5005769
:100C4000A4F80130BB680122214628469847A4F841
:100C50000190BB68012221462846984740F2457022
:100C6000DFF8BCA086424FF066396FF00B0B3046C0
:100C700014D3FFF760FC4A465346FFF764FB5A461D
:100C8000FFF742FC0022274BFFF75DFB0022264BBB
:100C9000FFF756FB0022254B13E03CE0FFF74BFC2F
:100CA0004A465346FFF74FFB5A46FFF72DFC0022FA
:100CB0001F4BFFF748FB1F4A1F4BFFF741FB00226A
:100CC0001E4BFFF7B2FBFFF75CFC694600F05AFCD5
:100CD00084F803809DF8000020719DF80100607188
:100CE0009DF80200A0719DF80300E0710520A4F8B2
:100CF0000100BB6801222146284698470620A4F837
:100D00000100BB680122214628469847002C02D0EA
:100D1000204602F079FCBDE8F88F00002C0000208E
:100D200066660A4000002C400080404000005440AD
:100D3000004055409A9999999951624000C05F408E
:100D4000B0F84400704700002DE9F8434C2002F051
:100D5000E3FC064600F11804051D4FF001080023CE
:100D6000032202213548CDF8008000F0DDFC306020
:100D700033480121B064084601F0C2FCDFF8C4909A
:100D8000484600F013F930482060211D06F1440068
:100D90000027A1E881014FF480702761C4E9057044
:100DA0008000E061202020620002C4E9090721469A
:100DB000484600F089F90121484600F0EBF801218E
:100DC000480201F0C1FC4FF4004001F08FFC2F609D
:100DD00085F8048085F805804FF46020C5E9020796
:100DE000194C85F810804C3C29462046FFF7E0FC62
:100DF000052301220B212046FFF7FEFC012120469E
:100E0000FFF7BEFC01212046FFF7B0FC2046FFF7AC
:100E10002DFD2046FFF7C5FC0028FAD12046FFF73C
:100E200034FD2046FFF7B6FC0028FAD10121204608
:100E3000FFF721FD3046BDE8F883000000100140B7
:100E4000410D0008080002404C240140FEE710B5A7
:100E500004460020E06061882046103100F002F86E
:100E6000E06010BD30B54FF0FF330022064C07E0C4
:100E7000855C5D40EDB2521C54F8255085EA132381
:100E80008A42F5D3D84330BD3438000830B5044623
:100E9000C568FFF7DCFFE068A84201D1012030BD42
:100EA000002030BDF0B500F500550024AB680BE024
:100EB000C6185B1C36790E550668641C93FBF6F762
:100EC00006FB1733944202D06E689E42F0D1204652
:100ED000F0BD000070B54FF48035284600F0DCF816
:100EE00000281BD00E4C0021204600F053F820466D
:100EF00000F0CEF80B49C0F5006201F5805002F019
:100F000025FB284600F03AF8E114204600F0F9F8F5
:100F10002046BDE87040012100F03CB870BD0000E3
:100F200058000240C008002070B54FF480152846D4
:100F300000F0B2F800281AD00D4C0021204600F035
:100F400029F8204600F0A4F8C0F5006209490A48D3
:100F500002F0FCFA284600F011F8E114204600F0F7
:100F6000D0F82046BDE87040012100F013B870BDF4
:100F70006C000240C0100020CC380020C10002D517
:100F80000249086070470249486070470404024003
:100F9000000002400029016802D041F0010102E096
:100FA0004FF6FE72114001607047000001684FF675
:100FB000FE72114001600021016041608160C160EA
:100FC0003149314A0839904203D1486840F00F0056
:100FD00006E02D4A1432904204D1486840F0F000F7
:100FE00048607047284A2832904203D1486840F44C
:100FF0007060F5E7244A3C32904203D1486840F4DF
:101000007040EDE7204A5032904203D1486840F4E6
:101010007020E5E71C4A6432904203D1486840F4EE
:101020007000DDE7184A7832904203D1486840F0FA
:101030007060D5E7154A111F904203D1086840F04F
:101040000F0006E0114A1432904204D1086840F0C3
:10105000F000086070470D4A2832904203D10868BA
:1010600040F47060F5E7094A3C32904203D10868C9
:1010700040F47040EDE7054A50329042EAD10868EA
:1010800040F47020E5E70000080002400804024038
:10109000406880B27047000001460020CA0001D5B8
:1010A000034A00E0034A12680A4200D00120704758
:1010B0000004024000000240002A026801D00A43F6
:1010C00000E08A430260704730B5036847F6F0726B
:1010D00093430C6A8A682243D1E904452C43224396
:1010E0008C692243CC6922434C6A22438C6A224396
:1010F0001A430260CA6842600A6882604968C16037
:1011000030BD4160704700001CB5824601F058FEBA
:10111000054629480090294E294C40F6B8374FF42F
:10112000826900BF01F04CFE7168401A642806D342
:1011300001F046FE706023480068C168884701F0EE
:101140003FFE401BB84201D901F0E0FD49461C4872
:10115000FFF733F81A49504600F0ABFA0028E1D007
:1011600001F02EFE0546A088512817D05228D9D16B
:101170000020019000F09CF9DFF84C80404600F020
:1011800021F9042201A9404600F02EF900F0F8F9F7
:10119000E08801F057FD01F0B9FDC3E76088084918
:1011A000C01CC0F38D021031684600F083F9E0885E
:1011B00001F048FDB6E700000000040850000020E0
:1011C000A00000207800002000E007087047000021
:1011D00010B50446142002F09FFA682104600171E2
:1011E000034981600349C1600349016110BD0000EA
:1011F000FD110008D31200081512000838B5044686
:1012000000680093CDB221791346C4682A46A047EE
:10121000C0B238BD2DE9FF4F85B04FF0000ACDF8C0
:1012200010A04FF002090568CDF80090984693464B
:1012300006460179EF68544604AB1C222846B8479D
:101240009DF811009DF8101000EB012087B2B80640
:101250002AD5322001F0E0FD26E000BF0BEB840030
:101260008DF804A00068CDF805000520009004F575
:101270000160C2B2D5F810C0317901AB2846E04711
:101280000698CDF800902044010A8DF804108DF8DE
:10129000050004F61500C2B2D5F810C0317901ABD3
:1012A0002846E047641CA4B2B4EB980FD6D347F0AD
:1012B0002000010A8DF810108DF81100CDF8009073
:1012C0002C69317904AB1C222846A04709B0BDE83F
:1012D000F08F38B5044600680093CDB221791346EB
:1012E00004692A46A04738BD10B50446102002F014
:1012F00013FAA02104600171024981600249C160B2
:1013000010BD00000D1300082513000838B5044671
:1013100000680093CDB221791346C4682A46A047DD
:10132000C0B238BD2DE9F84F81460026D0F80080C4
:101330000D4617461C4688062ED005F03F0ACAF116
:1013400040000090D8F810C0EAB299F80410404666
:101350003B46E047A5EB0A00403085B205F03F0070
:10136000C0F140000744241A16E0402C01DD402063
:1013700000E0A0B2009005EB8610C2B2D8F810C011
:1013800007EB861399F804104046E047761C403C72
:10139000B6B2142001F040FD002CE6DC0020BDE8D0
:1013A000F88F000010B500F083F8BDE810404FF44E
:1013B00000620249024800F069B8000000380408E1
:1013C00000000408074910B50144B1F5605F03D877
:1013D00000F02AF8042802D04FF0FF3010BD0020A2
:1013E00010BD00000040F8F72DE9F04188460C4997
:1013F000002501441646B1F5605F0FD80446094F39
:101400000AE0BC420AD858F82510204600F076F8C9
:10141000042803D1241D6D1CB542F2D3BDE8F08130
:101420000040F8F7FBFF070870B505464FF430267B
:10143000304600F093F8042811D1094C206940F09F
:10144000020020616561206940F040002061304663
:1014500000F084F8216941F6FD721140216170BDF0
:101460000020024008490420CA68D20701D00120A8
:101470007047CA68520701D502207047C968C9067B
:10148000FBD50320704700000020024070B51646CF
:101490000D46044608E02046FFF7C6FF042802D0A8
:1014A0004FF0FF3070BD3444AC42F4D9002070BD21
:1014B00000F048B82DE9F04116468846054600245C
:1014C000094F0DE02868B8420CD858F82410286855
:1014D00000F014F8042805D12868001D2860641C59
:1014E000B442EFD3BDE8F081FB3F04080248016934
:1014F00041F0800101617047002002402DE9F04178
:1015000005464FF400570E46384600F027F80428E9
:1015100014D10B4C206940F0010020612E80B846A8
:10152000384600F01BF8BF1E042804D1300C688038
:10153000404600F013F8216939402161BDE8F0818F
:10154000002002400348024941600349416070475E
:101550002301674500200240AB89EFCD00B503466B
:10156000FFF780FF03E000BFFFF77CFF5B1E012851
:1015700003D0002B00D1052000BD002BF4D1FAE7E9
:10158000FFF7B4BF10B50C461721FEF729FEFEF792
:10159000DFFF00F10060E0704FEA1021A1704FEA18
:1015A00010414FEA1060617080F008002070010760
:1015B00002D540F0F000207010BD0000F0B5CA78F0
:1015C000002502F00F03D20601D58A7813430A786A
:1015D0004FF00F0E12F0FF0F4FF001021CD0046805
:1015E0000F8802FA05F63740B74211D14FEA850C51
:1015F0000EFA0CF724EA070703FA0CF43C43CF7801
:10160000282F02D0482F02D002E0466100E0066198
:101610006D1C082DE4D304600C88FF2C1ED944688F
:101620005FF0000606F1080702FA07F50F882F4061
:10163000AF420FD14FEA860C0EFA0CF7BC4303FA07
:101640000CF73C43CF78282F00D14561CF78482F45
:1016500000D10561761C082EE4D34460F0BD02463B
:10166000002092680A4200D0012070470246002004
:10167000D2680A4200D00120704741617047016181
:1016800070470AB1016170474161704701480068C5
:10169000704700001400002000F500510A46496818
:1016A0009268914201DB881A704700680844801AEA
:1016B0007047F8B50D46044600264AF25A57ADF871
:1016C00000602046FFF7E8FF022801D20020F8BDA5
:1016D000022269462046FFF7E5FBBDF80000B8424C
:1016E0001CD12046FFF7D8FF80B21028EED310227D
:1016F00029462046FFF7D6FB2046FFF7CDFF698835
:1017000080B210318AB28242E0D82946204601F0E8
:1017100093F82846BDE8F840FFF7B8BB01226946B8
:10172000204601F089F8CAE72DE9F04780461D46BA
:1017300016460F461C20DDF8209001F0EDFFC0F8A2
:10174000008087808671C571044680F8089009483A
:10175000E06009482061094860610948A0610121F1
:10176000182000F0F1FF211D2068FFF727FF204619
:10177000BDE8F087B51700088D1700089517000819
:101780008517000881880068FFF769BF81880068B5
:10179000FFF773BF10B5044681880068FFF766FF46
:1017A00030B10022A1882068BDE81040FFF769BF72
:1017B0000122F7E781880068FFF761BFFEE7002993
:1017C000018802D041F4806101E021F48061018050
:1017D000704702460020938A128B43EA024323F0AB
:1017E0007F42914300D1012070470029018802D037
:1017F00041F0010101E021F001010180704700008A
:1018000010B5012186B0880500F086FF012109206E
:1018100000F09AFF4FF44060ADF8100003208DF8FF
:1018200012001C208DF8130004A91348FFF7C6FE10
:10183000124C204600F026F80020ADF804004BF6CC
:10184000FF70ADF806003020ADF808002015ADF8A7
:101850000A000001ADF80C00094800900121204663
:10186000FFF7C3FF6946204600F046F801212046F5
:10187000FFF7A5FF06B010BD000C01400058004066
:10188000A0860100094910B588424FF0010101D13D
:101890004C0501E04FF48004204600F049FF20464B
:1018A000BDE81040002100F043BF0000005400409C
:1018B0000029018802D041F4807101E021F4807197
:1018C000018070470029018802D041F4007101E0D5
:1018D00021F400710180704700220B0F21F07F413D
:1018E00001D0143001E0090C18300068084200D023
:1018F000012210467047000070B50446808886B00B
:101900000D4620F03F06684600F036FF2649029853
:10191000B0FBF1F189B20E43A680228822F00102C9
:101920002280224B2A689A421CD85200B0FBF2F067
:1019300080B2042800D20420491C2184A08320887E
:1019400040F00100208021884FF6F5300140A88842
:101950006A89104308432080A88929890843208187
:1019600006B070BDEB88A3F53F46FF3E05D102EB04
:101970004202B0FBF2F080B208E002EBC20303EBDC
:101980000212B0FBF2F080B240F48040020501D1B7
:1019900040F001004FF4967251434FF47A72B1FB5C
:1019A000F2F140F40040C7E740420F00A08601007A
:1019B0002DE9FF5F90460E9D9A4635B141F2707653
:1019C000771E3C464FF4003907E0012004B0BDE823
:1019D000F09F2046641E012870DB49460098FFF7FF
:1019E0007BFF0028F5D101210098FFF7E8FE0121D7
:1019F0000098FFF75DFFB1463E464B4C03E0304692
:101A0000761E012877DB21460098FFF7E2FE0028CA
:101A1000F5D0DDE90001002200F08DF83E46DFF848
:101A20000CB103E03046761E012864DB594600986D
:101A3000FFF7CFFE0028F5D04FEA1821009800F0FC
:101A400082F8CB46B9463E46384FBF1C03E03046CD
:101A5000761E01284FDB39460098FFF7BAFE0028B2
:101A6000F5D008F0FF01009800F06DF8C8464E462A
:101A700003E03046761E01283DDB39460098FFF72B
:101A8000A8FE0028F5D001210098FFF711FFD946E4
:101A90004646474603E038467F1E01282BDB214699
:101AA0000098FFF796FE0028F5D0DDE9000101223D
:101AB00000F041F81C4C4F46641C04E01BE030462B
:101AC000761E012817DB21460098FFF782FE0028CA
:101AD000F5D0154E3F360DB3012D07D100210098EA
:101AE000FFF76DFE01210098FFF7ECFE3C46204613
:101AF000641E012804DAFFF783FE4FF0FF3065E72C
:101B000031460098FFF765FE0028F0D0009800F0FD
:101B10000FF86D1E0AF8010BADB2DCE70121009849
:101B2000FFF74DFE002051E701000300820007008F
:101B3000008AC0B2704712B141F0010101E001F02A
:101B4000FE01018270470182704700002DE9FF5FAE
:101B50009A460E9F90468B46002F62D00121009836
:101B6000FFF7A6FE41F26F7634464FF0FF392E4D57
:101B700003E02046641E012839DB29460098FFF760
:101B800028FE0028F5D0002259460098FFF7D3FF21
:101B90003446264D03E02046641E012827DB2946F3
:101BA0000098FFF716FE0028F5D041460098FFF791
:101BB000CAFF1E4D3446AD1C03E02046641E0128BA
:101BC00015DB29460098FFF704FE0028F5D0B04643
:101BD00000242E4618E000BF1AF804100098FFF702
:101BE000B2FF454609E028466D1E012805DAFFF7D9
:101BF00007FE484604B0BDE8F09F31460098FFF765
:101C0000E8FD0028EFD0641CBC42E5DB0121009810
:101C1000FFF758FE4FF47A700100A0F1010080B286
:101C2000FAD10020E6E7000001000300820007006F
:101C30002DE9FF5F17460E9E9A468B46002E74D004
:101C400001210098FFF734FE41F26F752C464FF0EA
:101C5000FF39DFF8DC8003E02046641E01284ADB00
:101C600041460098FFF7B5FD0028F5D000225946FF
:101C70000098FFF760FF2C46DFF8B88003E02046AD
:101C8000641E012837DB41460098FFF7A2FD0028BB
:101C9000F5D0390A0098FFF756FF264CA846A41C39
:101CA00003E028466D1E012825DB21460098FFF73A
:101CB00090FD0028F5D0F9B20098FFF744FF4746A1
:101CC000454603E028466D1E012814DB2146009896
:101CD000FFF77FFD0028F5D0B8460025274617E01E
:101CE0001AF805100098FFF72EFF444609E0204639
:101CF000641E012805DAFFF783FD484604B0BDE8FD
:101D0000F09F39460098FFF764FD0028EFD06D1C66
:101D1000B542E5DB01210098FFF7D4FD4FF47A705E
:101D20000100A0F1010080B2FAD10020E6E7000036
:101D3000010003008200070010B5040007D02068EE
:101D4000FFF7A0FD2046BDE8104001F05DBC10BDCE
:101D500030B5054685B0182001F0DEFC0446234866
:101D60000121C4E900502248A0602248E0602248D6
:101D7000206122486061880500F0CEFC0121092025
:101D800000F0E2FC4FF44060ADF8100003208DF845
:101D900012001C208DF8130004A91948FFF70EFC4F
:101DA0002068FFF76FFD0020ADF804004BF6FF70D0
:101DB000ADF806003020ADF808004FF48060ADF8B3
:101DC0000A000001ADF80C000E48009001212068C7
:101DD000FFF70BFD69462068FFF78EFD01212068A3
:101DE000FFF7EDFC05B0204630BD0000291E0008BD
:101DF000F92000087D1F0008E1210008391D0008B6
:101E0000000C0140A086010070B505460068FFF790
:101E10009FFF0446014618222846FEF7B5F92046E2
:101E2000BDE8704001F0F0BB2DE9FF5F99460E9DC3
:101E300004464DB141F26F7741F2707A3E464FF061
:101E4000FF3B4FF4003807E0012004B0BDE8F09FED
:101E50003046761E012872DB41462068FFF73CFDC4
:101E60000028F5D101212068FFF7A9FC0121206895
:101E7000FFF71EFDB8463E463E4F03E03046761E55
:101E800001285CDB39462068FFF7A3FC0028F5D069
:101E9000002220680199FFF74EFE464603E03046D7
:101EA000761E01284BDB34492068FFF792FC00289E
:101EB000F5D020680299FFF746FE464603E030461B
:101EC000761E01283BDB2C492068891CFFF781FC2A
:101ED0000028F4D001212068FFF7EAFC464603E021
:101EE0003046761E01282ADB39462068FFF771FC50
:101EF0000028F5D0012220680199FFF71CFE1D4F34
:101F000046467F1C03E03046761E012817DB394623
:101F10002068FFF75EFC0028F5D022E0012D07D1F4
:101F200000212068FFF74BFC01212068FFF7CAFC65
:101F3000104F56463F373046761E012804DA2046B9
:101F4000FFF762FF584680E739462068FFF741FCFB
:101F50000028F0D02068FFF7EBFD6D1E09F8010B9B
:101F6000ADB2002DDAD101212068FFF728FC002056
:101F70006BE7000001000300820007002DE9FF5F0E
:101F80009A460E9D04463DB141F26F7641F270795A
:101F900037464FF4003807E0012004B0BDE8F09F59
:101FA00038467F1E012875DB41462068FFF794FC08
:101FB0000028F5D101212068FFF701FC01212068EC
:101FC000FFF776FC3746DFF8288103E038467F1EAE
:101FD000012871DB41462068FFF7FBFB0028F5D0A4
:101FE000002220680199FFF7A6FD3746DFF804B10B
:101FF00003E038467F1E01285EDB59462068FFF764
:10200000E8FB0028F5D000212068FFF79CFD394F40
:10201000CB46B146BF1C03E03046761E01284BDBA1
:1020200039462068FFF7D5FB0028F5D020680299D3
:10203000FFF789FD4E4603E03046761E01283BDB64
:1020400039462068FFF7C5FB0028F5D0012120683C
:10205000FFF72EFC4E464F4603E038467F1E012810
:102060002ADB41462068FFF7B4FB0028F5D00122A7
:1020700020680199FFF75FFD1D4F7F1C03E030468C
:10208000761E012818DB39462068FFF7A2FB0028DE
:10209000F5D024E010E0012D07D100212068FFF7E2
:1020A0008EFB01212068FFF70DFC114F5E463F3784
:1020B0003046761E012805DA2046FFF7A5FE4FF0D0
:1020C000FF306AE739462068FFF783FB0028EFD02E
:1020D0002068FFF72DFD6D1E0AF8010BADB2002D33
:1020E000D9D101212068FFF76AFB002055E70000E5
:1020F00001000300820007002DE9FF5F9B460E9F51
:1021000091460446002F65D001212068FFF7D0FBDF
:1021100041F26F7635464FF0FF3ADFF8BC8003E0BE
:1021200028466D1E01283ADB41462068FFF751FB27
:102130000028F5D0002220680199FFF7FCFC354605
:10214000DFF8988003E028466D1E012827DB414612
:102150002068FFF73EFB0028F5D049462068FFF7CE
:10216000F2FCB04635461D4EB61C03E028466D1EF7
:10217000012814DB31462068FFF72BFB0028F5D03F
:10218000C1460025B04618E01BF805102068FFF78F
:10219000DAFC4E460AE03046761E012806DA204672
:1021A000FFF732FE504604B0BDE8F09F414620687C
:1021B000FFF70FFB0028EED06D1CBD42E4DB0121D0
:1021C0002068FFF77FFB4FF47A700100A0F1010057
:1021D00080B2FAD10020E6E7010003008200070088
:1021E0002DE9FF5F9B460E9F91460446002F75D058
:1021F00001212068FFF75CFB41F26F7635464FF016
:10220000FF3ADFF8DC8003E028466D1E01284ADB38
:1022100041462068FFF7DDFA0028F5D0002220684B
:102220000199FFF788FC3546DFF8B88003E02846BF
:102230006D1E012837DB41462068FFF7CAFA0028E7
:10224000F5D000212068FFF77EFCB0463546254ECC
:10225000B61C03E028466D1E012824DB31462068A9
:10226000FFF7B7FA0028F5D049462068FFF76BFC66
:10227000454603E028466D1E012814DB31462068E0
:10228000FFF7A7FA0028F5D0C1460025B04618E0B0
:102290001BF805102068FFF756FC4E460AE0304652
:1022A000761E012806DA2046FFF7AEFD504604B040
:1022B000BDE8F09F41462068FFF78BFA0028EED07A
:1022C0006D1CBD42E4DB01212068FFF7FBFA4FF4EF
:1022D0007A700100A0F1010080B2FAD10020E6E797
:1022E00001000300820007004FF40051016000F577
:1022F000005000214160816070470000064800687E
:1023000038B90648064900680068884201D10120B2
:10231000704700207047000000E807081400002004
:10232000AA55AA5570B54FF000650021284600F067
:10233000D1F96868044C2061A0602868FDF70BFFA4
:10234000A068BDE8704000475000002070B5094CFF
:10235000054620688169884720682946C2699047F8
:1023600060688169884760682946C269BDE8704035
:102370001047000030000020F8B501254823032253
:10238000E9030D480095FFF7CFF940F6B8360B4B3F
:102390003246012100F01AF8094C4823032220603C
:1023A000290208480095FFF7BFF9074B3246012183
:1023B00000F00CF86060F8BD000C0140D337000855
:1023C0003000002000100140853700082DE9F04161
:1023D00007461C4615460E46202001F09DF9076071
:1023E0000671C58000218460017341738173C173DC
:1023F0000174418201754175024981610249C161DF
:10240000BDE8F0812B2400080D24000870B50446B7
:10241000007B002520B1A2680AB1084690472573C9
:10242000607B002800D0657370BD10B5044600685D
:102430002168227989692AB1884708B1002002E021
:10244000012000E08847A37B002201218BB10028F6
:10245000608A07D00A3080B26082E288904200D160
:10246000217310BD18B1E388984200D26173A27342
:1024700010BD0028FCD06282A17310BD0068016904
:1024800008470068C168084710B50446102001F0ED
:1024900043F90449C0E90041034981600349C1602F
:1024A00010BD0000832400087D240008B12400082A
:1024B0000068416908470000F8B501241F4E102349
:1024C0000322214630460094FFF72EF9FFF7DCFF88
:1024D0001B4D1C4F10232861032280213846009495
:1024E000FFF722F9FFF7D0FF686110230322402194
:1024F00038460094FFF718F9FFF7C6FFA8611023CC
:102500000322990230460094FFF70EF9FFF7BCFF53
:10251000E86110230322590230460094FFF704F9C2
:10252000FFF7B2FF286210230322190230460094FD
:10253000FFF7FAF8FFF7A8FF6862F8BD000C01404A
:1025400068000020001001402DE9F041D0F8A451AE
:1025500000F036FC2A4C4FF4FA762168401AB0425B
:1025600005D300F02DFC20602069C168884705F57F
:102570000057B87820B3E06840B900F021FCE06073
:10258000E0698168884760698168884700F018FCC5
:102590006168401A40F6B831884202D30020B87012
:1025A000E06000F00DFCA168401A642825D300F01B
:1025B00007FCA060E069C16888476069C16811E0F4
:1025C00000F0FEFB6168401AB04216D36D7800F04F
:1025D000F7FB60604DB1E069012D0CD04168884780
:1025E00060694168BDE8F0410847E0694168884793
:1025F00060698168F6E78168F1E7BDE8F081000075
:10260000680000202DE9F0411546DDE906781E46F8
:10261000044621B11DB104F11000FDF7B5FD4AF2E9
:102620005A50208026816580A780A4F80680204625
:10263000BDE8F041FEF70BBCFEE77047F0B50F2197
:10264000C478027801234FF0E026DCB1124C2468F4
:10265000457804F4E064C4F5E064240AC4F1040796
:10266000E1408478BD400C402C4321010B4C1155B6
:10267000007800F01F018B40400906EB8000C0F895
:102680000031F0BD02F01F008340500906EB8000CE
:10269000C0F88031F0BD00000CED00E000E400E087
:1026A0000249084302490860704700000000FA052B
:1026B0000CED00E00907090E002803DA00F00F0016
:1026C000024A00E0024A81547047000014ED00E025
:1026D00000E400E0024A11400143024801607047F3
:1026E00080FFFF1F08ED00E070470000034A5168BB
:1026F00021F4404101435160704700000010024046
:10270000044A0029516901D0014300E0814351612D
:102710007047000000100240044A0029D16901D02E
:10272000014300E08143D161704700000010024086
:10273000044A0029116901D0014300E0814311617D
:102740007047000000100240044A0029916901D03E
:10275000014300E081439161704700000010024096
:10276000044A0029D16801D0014300E08143D160CF
:102770007047000000100240234A10B55168234BF7
:1027800011F00C0103D0042903D0082903D0036001
:1027900016E01F4913E05168536801F470114FF0BF
:1027A000020413F4803F04EB914104D053689B036F
:1027B00003D5184B02E0184B00E0154B594301605C
:1027C0005168164B01F0F00109095C5C0168E140B9
:1027D0004160546804F4E064240A1C5D21FA04F4A6
:1027E0008460546804F46054E40A1B5DD940C160FD
:1027F00052680A4B02F44042920B1B1F9A5CB1FBD9
:10280000F2F1016110BD00000010024000127A00D8
:10281000001BB700808D5B0000093D000400002014
:1028200008B5009313460A4601460248FFF7C0F870
:10283000C0B208BD00580040F0B5002400F50053B8
:10284000051D0CE0765D0E559E680768761C96FBAC
:10285000F7FC07FB1C66641C9E60944203D0D3E91E
:102860000176BE42EED12046F0BD000008B50B4611
:102870000092024668210248FFF79AF8C0B208BDEC
:10288000005800400068C1680847006801690847AF
:10289000F8B501251023032259011F480095FEF7C2
:1028A00043FF00F03FF81D4C1D4E10232060032213
:1028B000190130460095FEF737FF00F033F86060ED
:1028C00014230322802130460095FEF72DFF00F0EF
:1028D00029F8A06020684168884760684168884797
:1028E000A068416888470A2000F096FA206881684D
:1028F00088471E2000F090FA6068816888474FF48E
:10290000827000F089FAA06881688847A068C16871
:1029100001B0BDE8F0400847001001403C00002035
:102920000008014010B50446102000F0F5FE0449EF
:10293000C0E90041034981600349C16010BD000046
:102940008B280008852800084D29000838B5046840
:1029500004230120E3710090A279A1882068FEF78A
:10296000E3FE054601461C222046FDF70DFC2846E5
:10297000BDE8384000F048BE2DE9FF4F85B04FF06C
:1029800000080225DFF8A8909A4617468B46009566
:10299000444604AB40F61C02CDF810804846059929
:1029A000FFF706F89DF811009DF8101000EB0120CC
:1029B00086B2B00627D5322000F02EFA23E000BF01
:1029C0000AEB84008DF804800068CDF8050005202E
:1029D000009004F5016082B201AB48460599FFF70B
:1029E00027F90BEB0400010A8DF804108DF805009F
:1029F00004F6150082B2009501AB48460599FFF731
:102A000017F9641CA4B2B4EB970FD9D346F0200099
:102A1000010A8DF810108DF81100009504AB40F6F6
:102A20001C0248460599FFF703F909B0BDE8F08F8D
:102A30000058004008B500920A4601460148FFF7D9
:102A4000F7F808BD005800407047000070B500243A
:102A5000811C407848B1012802D0022805D102E04B
:102A60004FF4005401E04FF480444034A5B20868AC
:102A70000A4CA0420BD100200C890BE001EB801620
:102A8000B6F84160964203D105EB8010188070BD06
:102A9000401C80B28442F1D870BD0000AA55AA55EE
:102AA0002DE9F04100270546841C00F5005659B178
:102AB000012904D0022905D0032905D123E04FF4D0
:102AC000005701E04FF48047326928469047402381
:102AD00022463946A020FFF7A3FE40372068124A5D
:102AE000B9B290421ED1208900277F281AD801222E
:102AF000B2704FF6FF7202EA801304F14002A02088
:102B0000FFF78EFE0BE069787268DEE704EB871151
:102B10004031B3680022284698477F1CBFB2208905
:102B2000B842F3D8BDE8F081AA55AA55F8B50546D4
:102B3000B1F8010016460C4650B1A0F54071FE39BF
:102B400009D1E079A179042200EB012081B20CE0E7
:102B5000E07928700DE0A0F54071FF3909D1E079E6
:102B6000A179022200EB012081B2D02000F00AF905
:102B700006E0E278B4F80110231D6820FFF7FCFEA0
:102B8000002E08D042F20C00B4F801204459002174
:102B90006B462846A047F8BD70B542F2140000F01D
:102BA000BBFD04460025057000F500500E498570F8
:102BB000C4F80250658141600C4981600C49C160D4
:102BC0000C49016106460123621C4FF4C041A0205C
:102BD000FFF726FE6078022804D96570326900216B
:102BE00020469047204670BDA12A00082D2B0008E2
:102BF0004D2A0008F92B000841700123421C4FF4B4
:102C0000C041A02000F064BC2DE9FC410E460746FF
:102C10001C4615464FF482610948DDF82080FDF717
:102C2000CCFACDE900482B46324639460448FFF736
:102C3000E9FC03484188BDE8FC41103100F0CABB03
:102C4000B00400201CB504464FF482610948FDF72A
:102C5000B4FA5320CDE9000400231A46194605486A
:102C6000FFF7D0FC03484188BDE81C40103100F05C
:102C7000B1BB0000B004002022480021026842F4E9
:102C8000803202604FF4A063026801F1010112F486
:102C9000003F01D19942F7D10168890330D51A4923
:102CA0000A6842F010020A600A6822F003020A6011
:102CB0000A6842F002020A6041684160416841606E
:102CC000416841F480614160416821F47C114160B8
:102CD000416841F4E8114160016841F08071016090
:102CE00001688901FCD5416821F003014160416818
:102CF00041F0020141604168C1F381010229FAD12A
:102D000070470000001002400020024010B5012072
:102D100080F31088C0064168044C2161A1600068FE
:102D2000FDF719FAA068BDE81040004750000020E8
:102D300000F07CB80F4810B5016841F00101016056
:102D400041680D4A1140416001680C4A1140016020
:102D5000016821F480210160416821F4FE01416095
:102D60004FF41F018160FFF787FF05494FF00060B6
:102D7000086010BD001002400000FFF8FFFFF6FEE3
:102D800008ED00E0FEB5054600200190080A8DF828
:102D900004000220094E01248DF8051000908DF8E2
:102DA000084001AB29463046FEF7D0FE02AB0822B0
:102DB000294630460094FEF7C9FEFEBD005800408B
:102DC00001480068704700004800002070B51149B4
:102DD00086B0486000250D606846FFF7CDFC00987E
:102DE0006421B0FBF1F16E1EB1F1807F0CD221F0B5
:102DF0007F404FF0E024401E60610F213046FFF716
:102E000059FCA5610720206101213046FFF752FCE3
:102E100006B070BD4800002003490A6810440A68E3
:102E20008242FCD37047000048000020024801683D
:102E30004268114401607047480000207CB5034699
:102E4000002001900222186800921D790A46446809
:102E500001AB2946A0479DF805009DF8041000EB42
:102E6000012080B27CBD00007CB50546102000F03A
:102E700053FCD0210560044601710848A060084851
:102E8000E06000208DF80400012000900246AE684A
:102E900001AB2846B04720467CBD0000A52E0008A7
:102EA0003D2E0008FEB505460020012601908DF854
:102EB0000860080A2C688DF80400022000908DF844
:102EC0000510A768297901AB2046B84700962979F3
:102ED000A56802AB08222046A847FEBD2DE9F041B7
:102EE000DFF8308192B00021404600F089F90121DD
:102EF0000846FFF729FC01210846FFF701FC0F20D7
:102F00008DF82C0001258DF82D508DF82E508DF860
:102F10002F500BA8FFF792FB3F4E3046FEF746F8C6
:102F200008F1040000903D480024CDE90104E802C6
:102F3000CDE903048020CDE905048001CDE90840F6
:102F40000794694630460A94FEF7BEF80122022132
:102F50003046FEF7B1F801213046FEF71BF801219B
:102F600044F20400FFF7F0FB6802ADF840001820BF
:102F70008DF843002A4F03268DF8426010A9384689
:102F8000FEF71CFBA802ADF8400004208DF84300BA
:102F90008DF8426010A93846FEF710FB4FF4E1307F
:102FA0000C90ADF838400C20ADF83440ADF83A0044
:102FB000ADF83640ADF83C400CA9404600F0A4F90D
:102FC00025208DF82C008DF82D508DF82E508DF881
:102FD0002F500BA8FFF732FB002240F2255140464C
:102FE00000F079F9002240F22661404600F073F9C2
:102FF000012240F22441404600F06DF901224021B7
:10300000404600F007F90121404600F0F9F812B0FF
:10301000BDE8F0810038014058000240C00800209F
:103020000008014010B5124C40F22441204600F047
:1030300033F900281BD02088201D00880D4C00216A
:103040002046FDF7A7FF2046FEF722F80A49C0F503
:10305000006201F5805000F079FAE1142046FEF795
:1030600050F82046BDE810400121FDF793BF10BD88
:103070000038014058000240C0080020F0B501218E
:103080008DB00846FFF760FB01210846FFF738FBCB
:1030900010208DF82C0001248DF82D408DF82E4045
:1030A0008DF82F400BA8FFF7C9FA394D2846FDF7D8
:1030B0007DFF3848009038480021CDE90101E00249
:1030C000CDE903018020CDE905018001CDE908109B
:1030D00007910A9169462846FDF7F6FF0122022171
:1030E0002846FDF7E9FF01212846FDF753FF01219E
:1030F0004804FFF711FB01210420FFF725FB0425FD
:10310000ADF8305018208DF83300244F03268DF889
:1031100032600CA93846FEF751FA0820ADF83000AD
:103120008DF833508DF832600CA93846FEF746FA18
:103130001B4803C800F062F926208DF82C008DF89A
:103140002D408DF82E408DF82F400BA8FFF776FA12
:10315000104C0022241F40F22551204600F0BBF8FD
:10316000002240F22661204600F0B5F8012240F22C
:103170002441204600F0AFF801224021204600F013
:1031800049F80121204600F03BF80DB0F0BD0000E9
:103190006C00024004440040C010002000080140C0
:1031A0009000002010B5124C40F22441204600F05F
:1031B00073F800281AD02088201D00880D4C0021AB
:1031C0002046FDF7E7FE2046FDF762FFC0F50062EE
:1031D00009490A4800F0BAF9E1142046FDF791FFC9
:1031E0002046BDE810400121FDF7D4BE10BD00000F
:1031F000004400406C000240C0100020CC38002089
:103200000029818902D041F4005101E021F40051EC
:1032100081817047002A828A01D00A4300E08A43F4
:1032200082827047174910B588420AD101218C0368
:103230002046FFF795FA2046BDE810400021FFF731
:103240008FBA1149884202D101214C0410E00F4984
:10325000884202D101218C040AE00D49884202D142
:103260000121CC0404E00B4988420AD101210C055C
:103270002046FFF75DFA2046BDE810400021FFF729
:1032800057BA10BD003801400044004000480040DB
:10329000004C00400050004030B501F01F020124F6
:1032A0000025C1F3421304FA02F2012B0FD0022BC6
:1032B0000FD0838A4FEA11210088134204FA01F4E7
:1032C00000EA040001D000B10125284630BD838901
:1032D000F0E7038AEEE710B5C1F3421301F01F04D3
:1032E0000121A140012B07D0022B07D01430002A66
:1032F000026805D00A4304E00C30F8E71030F6E726
:103300008A43026010BD000030B50446008A85B0D3
:103310000D464CF6FF710840E98801432182A189DE
:103320004EF6F3100140A8882A8910436A890A439F
:103330001043A081A08A4FF6FF410840A9890143AC
:10334000A1826846FFF718FA1B48844201D103980E
:1033500000E00298A1890904002900EBC00101EBFB
:103360000010296802DA4FEA410101E04FEA8101C9
:10337000B0FBF1F06422B0FBF2F14FEA01114FEA29
:1033800011136FF018056B4300EB8300A3891D0434
:103390004FF0320306D503EBC000B0FBF2F000F0B3
:1033A000070005E003EB0010B0FBF2F000F00F00A7
:1033B0000843208105B030BD003801400022C0051F
:1033C000CA70020A8A70020C4A70000E08707047B8
:1033D000FEE7000030B5084B00221C1D05E01D88EB
:1033E0006D06FCD5855C2580521C8A42F7D318886F
:1033F0004006FCD530BD0000003801402DE9FF41FA
:103400000C4605462F49002051F820309D4202D03D
:10341000401C0728F8D3072811D0200E0FD1C4F381
:10342000074018B1022801D0012808D1C4F30720B1
:10343000012801D0022802D1E0B2082803D00320DD
:1034400004B0BDE8F081204F002631463846FFF732
:10345000D7FEE0B20095082801D1ADF80460C4F3AE
:103460000720012802D0022807D102E0ADF806604B
:1034700003E04FF40050ADF80600C4F3074020B15C
:10348000012805D002280AD105E0ADF8086006E061
:103490004FF4C06001E04FF48060ADF808000C20EC
:1034A000ADF80A00ADF80C6069463846FFF72CFF0E
:1034B00001213846FFF7A4FE0448C0E9005400206B
:1034C000BEE70000183800080044004090000020CB
:1034D0002DE9F84F82460026DFF86C900D4617461E
:1034E0001C4688062AD005F03F08C8F14000134664
:1034F0000A46009051464846FEF79AFBA5EB0800A5
:10350000403085B205F03F00C0F140000744241A66
:1035100014E0402C01DD402000E0A0B2009005EB5B
:10352000861082B207EB861351464846FEF780FBB1
:10353000761C403CB6B21420FFF76EFC002CE8DC91
:103540000020BDE8F88F000000580040F0B50024CE
:1035500000F50053051D0CE00F5D77555E680768A8
:10356000761C96FBF7FC07FB1C66641C5E609442AD
:103570000BD05E68D0F800C0771C97FBFCFE0CFBFC
:103580001E77D3F808C06745E6D12046F0BD02E0BB
:1035900008C8121F08C1002AFAD1704770470020DE
:1035A00001E001C1121F002AFBD1704770B5FEF780
:1035B000A5FE002825D0134C40F61C050222294602
:1035C0006820E368FFF736FA4FF4A0524FF48061A9
:1035D00068206368FFF72EFA4FF4805200216820BC
:1035E000A368FFF727FA1822294668202369FFF706
:1035F00021FA29466369BDE8704002226820FFF77E
:1036000019BA70BD1400002010B5002821D0114B4C
:10361000001F0022196803E0814203D80A46496866
:103620000029F9D152B11368841A9C4204D1006870
:1036300018441060104602E0506000E0186039B194
:1036400002680B1A934203D10B681A44026049685E
:10365000416010BD980000200026ADF5826D354612
:10366000FFF768FB4FF4A060FFF71AF8002080F323
:1036700010880A20FFF7AAFB002080F31088FDF7CE
:1036800009F90446FEF718FFFFF702F92048FEF794
:103690002BFE2048FEF728FEFFF720FCFFF7EEFC8C
:1036A000FEF76AFEFFF782FF3220FFF7B5FBFFF758
:1036B00073FA42F20401C4F8A4010A58032106E097
:1036C000BDF8040054F8202012B169462046904706
:1036D00069460F48FDF7EDFF0028F1D1FFF770FBB9
:1036E000801B0A2805D3FFF76BFB06462046FEF732
:1036F0002DFEFFF765FB401BC82805D3FFF760FBD5
:1037000005462046FDF746FA2046FEF71DFFDFE797
:10371000C0180020CC380020F0B50B30154D20F03B
:1037200007010024144A0FE003688B420BD38B423D
:1037300005D95E1A43184768C3E9006700E043688B
:10374000136002C004E0021D10680028ECD120467E
:10375000002802D1286808B10020F0BD064A0748B9
:103760001060074A121A22F00702C0E90024012063
:103770002860D7E79C00002098000020DC5800203B
:10378000D8A80020F8B5D0F8A44100262078E8B1E8
:1037900026704020FFF7C0FF0546A0F801602078A2
:1037A000E8710420E87042F208002E7003590122EB
:1037B0002946204698472846FFF726FF4623002241
:1037C000402128460096FFF71FFAF8BD012020701F
:1037D000DFE77CB5D0F8A4410025607820B101284E
:1037E00004D0022805D005E0012000E0022060702E
:1037F00000E0657042F2040061780259204690476B
:1038000060788DF8040047230022012101A800956B
:10381000FFF7FAF97CBD000000C2010000E10000E2
:1038200000960000004B000080250000C012000040
:103830006009000000000000963007772C610EEE52
:10384000BA51099919C46D078FF46A7035A563E9F7
:10385000A395649E3288DB0EA4B8DC791EE9D5E01E
:1038600088D9D2972B4CB609BD7CB17E072DB8E71D
:10387000911DBF906410B71DF220B06A4871B9F372
:10388000DE41BE847DD4DA1AEBE4DD6D51B5D4F4AB
:10389000C785D38356986C13C0A86B647AF962FD10
:1038A000ECC9658A4F5C0114D96C0663633D0FFA5D
:1038B000F50D088DC8206E3B5E10694CE44160D563
:1038C000727167A2D1E4033C47D4044BFD850DD24D
:1038D0006BB50AA5FAA8B5356C98B242D6C9BBDB60
:1038E00040F9BCACE36CD832755CDF45CF0DD6DC5B
:1038F000593DD1ABAC30D9263A00DE518051D7C802
:103900001661D0BFB5F4B42123C4B3569995BACF8C
:103910000FA5BDB89EB802280888055FB2D90CC6AD
:1039200024E90BB1877C6F2F114C6858AB1D61C126
:103930003D2D66B69041DC760671DB01BC20D29845
:103940002A10D5EF8985B1711FB5B606A5E4BF9FD2
:1039500033D4B8E8A2C9077834F9000F8EA80996C5
:1039600018980EE1BB0D6A7F2D3D6D08976C649130
:10397000015C63E6F4516B6B62616C1CD830658549
:103980004E0062F2ED95066C7BA5011BC1F4088226
:1039900057C40FF5C6D9B06550E9B712EAB8BE8B67
:1039A0007C88B9FCDF1DDD62492DDA15F37CD38CF0
:1039B000654CD4FB5861B24DCE51B53A7400BCA3EE
:1039C000E230BBD441A5DF4AD795D83D6DC4D1A420
:1039D000FBF4D6D36AE96943FCD96E34468867ADF7
:1039E000D0B860DA732D0444E51D03335F4C0AAA96
:1039F000C97C0DDD3C710550AA41022710100BBE99
:103A000086200CC925B56857B3856F2009D466B9DF
:103A10009FE461CE0EF9DE5E98C9D9292298D0B014
:103A2000B4A8D7C7173DB359810DB42E3B5CBDB7C1
:103A3000AD6CBAC02083B8EDB6B3BF9A0CE2B60342
:103A40009AD2B1743947D5EAAF77D29D1526DB04F7
:103A50008316DC73120B63E3843B64943E6A6D0D42
:103A6000A85A6A7A0BCF0EE49DFF099327AE000A8D
:103A7000B19E077D44930FF0D2A3088768F2011E20
:103A8000FEC206695D5762F7CB67658071366C19B7
:103A9000E7066B6E761BD4FEE02BD3895A7ADA10D8
:103AA000CC4ADD676FDFB9F9F9EFBE8E43BEB717B9
:103AB000D58EB060E8A3D6D67E93D1A1C4C2D83843
:103AC00052F2DF4FF167BBD16757BCA6DD06B53FA9
:103AD0004B36B248DA2B0DD84C1B0AAFF64A0336E8
:103AE000607A0441C3EF60DF55DF67A8EF8E6E3167
:103AF00079BE69468CB361CB1A8366BCA0D26F25B0
:103B000036E2685295770CCC03470BBBB9160222FC
:103B10002F260555BE3BBAC5280BBDB2925AB42B11
:103B2000046AB35CA7FFD7C231CFD0B58B9ED92C26
:103B30001DAEDE5BB0C2649B26F263EC9CA36A758B
:103B40000A936D02A906099C3F360EEB8567077242
:103B500013570005824ABF95147AB8E2AE2BB17BA9
:103B6000381BB60C9B8ED2920DBED5E5B7EFDC7C30
:103B700021DFDB0BD4D2D38642E2D4F1F8B3DD6887
:103B80006E83DA1FCD16BE815B26B9F6E177B06F82
:103B90007747B718E65A0888706A0FFFCA3B06666F
:103BA0005C0B0111FF9E658F69AE62F8D3FF6B61FC
:103BB00045CF6C1678E20AA0EED20DD75483044E9E
:103BC000C2B30339612667A7F71660D04D4769492C
:103BD000DB776E3E4A6AD1AEDC5AD6D9660BDF403F
:103BE000F03BD83753AEBCA9C59EBBDE7FCFB247F2
:103BF000E9FFB5301CF2BDBD8AC2BACA3093B353D7
:103C0000A6A3B4240536D0BA9306D7CD2957DE54DF
:103C1000BF67D9232E7A66B3B84A61C4021B685DB8
:103C2000942B6F2A37BE0BB4A18E0CC31BDF055A31
:103C30008DEF022D2404010800000020A0000000E8
:103C40008E350008C4040108A000002038AE000032
:103C50009E35000800000000000000000000000089
:103C60000000000000000000000000000000000054
:103C70000000000000000000000000000000000044
:103C80000000000000000000000000000000000034
:103C90000000000000000000000000000000000024
:020000040801F1
:1004000020312E302E31204275696C642040204A04
:10041000616E20313220323032302032313A353480
:100420003A3139000204060800000000010203040A
:10043000010203040607080900000408400004083C
:100440004014040840240408422404085A240408E0
:10045000000000000000000000000000000401088F
:10046000000000000000000000000000000000008C
:10047000000000000000000000000000000000007C
:10048000000000000000000000000000000000006C
:10049000000000000000000000000000000000005C
:1004A000000000000000000000000000000000004C
:1004B000000000008025000008010000000000008E
:0404C0000000000038
:0400000508000131BD
:00000001FF
